:020000040000FA
:0600000078EF6BF0120026
:020006001200E6
:080008009EAA02D009EF61F08D
:020010001200DC
:060012000004A300000041
:08001800F2A402D078EF69F0B8
:080020001200F28EF28C1200B6
:08002800100012DA0000B3041D
:1000300000000100000010DA0000AE040000020021
:100040000000A3D90000870C00006D00000099D9C2
:100050000000700E00000A00000095D90000A20404
:1000600000000400000093D90000AC04000002006E
:10007000000087D90000F40000000C00000031D718
:100080000000B20400000100000085D90000AA04AD
:1000900000000200000081D900005B0F0000040096
:1000A00000007FD90000A8040000020000007DD9F4
:1000B0000000A604000002000000E9D80000600073
:1000C000000094000000EDD7000000020000FC00DA
:1000D0000000BBD700003E0E00003200000034D705
:0A00E0000000000C00008700000083
:0600EA00D9CFE6FFE1CFD3
:1000F000D9FFFE0EDB500401AA5D01E144D0FE0EE3
:100100000401AA5D1CE01C0EE66EE66A290EE66E8E
:100110000F0EE66E0401AA511C0DF3CF14F0F4CFBC
:1001200015F0000E1426010E152214C0E6FF15C0AE
:10013000E6FFE6EC67F0166E060EE15E1650FE0E68
:10014000DBCFAAF4FE0EDB50FE0801E11CD01C0E32
:10015000E66EE66AFE0EDB501C0DF3CF14F0F4CF12
:1001600015F0000E1426010E152214C0E6FF15C06E
:10017000E6FF290EE66E0F0EE66EE6EC67F0166EF1
:10018000060EE15E1650E552E7CFD9FF12000401DA
:10019000AA510401AB5D01E15AD0FE0E0401AB5D32
:1001A00037E0270EE66EE66A010EE66E020EE66E98
:1001B0000F0EE66E0401AB511C0DF3CFE9FFF4CF37
:1001C000EAFF000EE926010EEA221B0EE926000EC8
:1001D000EA22EF50E66E0401AB511C0DF3CFE9FFAC
:1001E000F4CFEAFF000EE926010EEA22EECF14F06A
:1001F000EFCF15F0270E145E000E155A14C0E6FF5F
:1002000015C0E6FF4EEC2FF0166E080EE15E16509C
:10021000AAC4ABF4270EE66EE66A44CFE6FF29CF08
:1002200014F02ACF15F0270E145E000E155A14C0D4
:10023000E6FF15C0E6FF010EE66E020EE66E0F0E3B
:10024000E66E4EEC2FF0166E080EE15E16501200B0
:10025000D9CFE6FFE1CFD9FF0B0EE126C00EF36E3A
:10026000090EF3CFDBFF100EF36E0A0EF3CFDBFFA8
:100270000F010051011112E180EC49F006C000FFAE
:1002800007C001FFFF0E0F010017070E0F01011736
:10029000000E0F010027040E0F0101233C0EE66E35
:1002A000E66AE66AC40EE66E030EE66E34EC68F0AB
:1002B000146E050EE15E1450010EDB6ADF6ADF503A
:1002C000146E156A090E145C000E155801E3CDD0AA
:1002D000DFCFE6FF0ADFE552DF50060DF3CFF6FF72
:1002E000F4CFF7FF420EF626D60EF722F62A000EBE
:1002F000F7220800080EF5CFDBFFDF50060DF3CF25
:10030000F6FFF4CFF7FF420EF626D60EF722020EC6
:10031000F626000EF7220900020EF5CFDBFF0A00D9
:10032000030EF5CFDBFFDF50060DF3CFF6FFF4CF62
:10033000F7FF420EF626D60EF722040EF626000E22
:10034000F7220900040EF5CFDBFF0A00050EF5CFFA
:10035000DBFF080EDB5001E043D0090EDBCF08F0D5
:100360000A0EDBCF09F0060E08C0DBFF070E09C03E
:10037000DBFF020EDBCF16F0030EDBCF17F0270EEC
:100380001626000E1722010E1626000E1722040E46
:10039000DB501624146E050EDB501720156E010E6F
:1003A0001426000E1522D950090FE96EDACFEAFFA4
:1003B0001450EE261550ED22090EDBCF14F00A0E74
:1003C000DBCF15F0166A176AD880FC0E14541F0E86
:1003D0001554000E1654000E175401E2EDD701D04B
:1003E000FFD7080EDBCF44FF060EDBCF29FF070E39
:1003F000DBCF2AFF270E0F012927000E0F012A232A
:10040000020EDB500F0129250F012B6F030EDB506D
:100410000F012A210F012C6F010E0F012B27000E57
:100420000F012C23040EDB500F012B250F012D6F24
:10043000050EDB500F012C210F012E6F0F010D0E49
:100440003F6F0F014097A3DEDF50060DF3CFF6FF9D
:10045000F4CFF7FF420EF626D60EF7220800F5CFAE
:1004600028FF2CEC21F0DF2A2AD70B0EE15C02E2F8
:10047000E16AE552E16EE552E7CFD9FF1200D9CF2C
:10048000E6FFE1CFD9FFE652DF6ADF50146E156A4E
:10049000090E145C000E155801E3E3D0DFCFE6FF30
:1004A00024DEE5520D0E0F013F5D01E0D8D06FDE76
:1004B000F70EDB500F01285D01E0D1D00F01180EBF
:1004C000256F020E266FFA0EDB5012E1F80EDBCF1D
:1004D00012FFF90EDBCF13FF0F0140870F01040E4F
:1004E0003F6FF80EDBCF42FFF90EDBCF43FFB5D0F5
:1004F0000F01000E005D040E015907E30F01880E85
:10050000D8800055130E015504E20F01006B040E54
:10051000016F0F0100CF12FF01CF13FF002B000E60
:100520000123F80EDBCF10FFF90EDBCF11FFDFEC5C
:1005300068F006C037FF07C038FF08C039FF09C0A0
:100540003AFF0F014089FA0EDB50040A3BE0070A2C
:1005500001E083D0FB0EDBCF18F0FC0EDBCF19F0EF
:10056000FD0EDB501824166EFE0EDB501920176EA0
:10057000F80EDB501624146EF90EDB501720156EA2
:1005800014500F0112190F01426F15500F0113196A
:100590000F01436FFB0EDBCF18FFFC0EDBCF19FF03
:1005A000FD0EDBCF1AFFFE0EDBCF1BFF0F01276B0B
:1005B0000F01270E026F036B046B056B0F01020E18
:1005C0003F6F4BD0FB0EDBCFE9FFFC0EDBCFEAFF2A
:1005D000020EE926000EEA22EECF18F0EFCF19F056
:1005E000FB0EDBCFE9FFFC0EDBCFEAFF1850EE2459
:1005F000166E1950EE20176EF80EDB501624146E8E
:10060000F90EDB501720156E14500F0112190F014F
:10061000426F15500F0113190F01436F0A0EE66E5A
:10062000E66AFB0EDBCFE6FFFC0EDBCFE6FF180E23
:10063000E66E0F0EE66EE6EC67F0146E060EE15EF7
:1006400014500F01050E3F6F010EE66E020EE66EAE
:10065000BDEC18F0E552E55200D0DF5004D0DF2A9F
:1006600014D7FE0E00D0E552E552E7CFD9FF1200B5
:10067000D9CFE6FFE1CFD9FFFE0EDB50146E156A2D
:10068000090E145C000E155802E3010E0ED0FE0E8A
:10069000DBCFE6FF2ADDE5520F0141A904D00F01AF
:1006A0004199010E02D0000E00D0E552E7CFD9FFEC
:1006B0001200D9CFE6FFE1CFD9FFFE0EDB50146E5A
:1006C000156A090E145C000E155802E3000E0DD0D9
:1006D000FE0EDBCFE6FF09DDE552070E0F013F5DA1
:1006E00002E0000E01D0010E00D0E552E7CFD9FFA5
:1006F0001200D9CFE6FFE1CFD9FFFE0EDB50146E1A
:10070000156A090E145C000E155801E369D0FE0E3F
:10071000DBCFE6FFEADCE55233CF35FF34CF36FFDF
:100720000F013F51080A52E0010A50E0050A4EE06D
:10073000020A48E0050A2BE00D0A0EE0010A0CE06F
:10074000070A07E0020A05E0010A03E0060A01E0E1
:100750003DD02CEC21F044D0010EE66E110EE66E79
:10076000BDEC18F0E552E5520F011451151101E1ED
:100770000AD00F010E510F012F1904E10F010F5183
:100780000F013019E9E10F01080E3F6F29D0010E6A
:10079000E66E110EE66EBDEC18F0E552E5520F0163
:1007A0001451151101E10AD00F010E510F012F193B
:1007B00004E10F010F510F013019E9E10F010C0E97
:1007C0003F6F0ED00F010D0E3F6F0AD0E66A140E78
:1007D000E66EBDEC18F0E552E5522CEC21F000D0AD
:1007E000E552E7CFD9FF1200D9CFE6FFE1CFD9FF1D
:1007F000FE0EDB50146E156A090E145C000E1558BF
:1008000001E30CD0FE0EDBCFE6FF6FDCE5520F01FB
:100810004097FE0EDBCFE6FF6CDFE552E552E7CFF7
:10082000D9FF1200D9CFE6FFE1CFD9FFFE0EDB5092
:10083000146E156A090E145C000E155803E3F36A72
:10084000F46A24D0FE0EDBCFE6FF4FDCE5529FDCDE
:100850000A0EE66EE66A180EE66E0F0EE66E450E9E
:10086000E66E0F0EE66EE6EC67F0146E060EE15EC5
:10087000145010CF4FFF11CF50FF450E146E0F0EC6
:10088000156E14C0F3FF15C0F4FF00D0E552E7CF9A
:10089000D9FF1200D9CFE6FFE1CFD9FFFE0EDB5022
:1008A000146E156A090E145C000E155801E318D079
:1008B000FE0EDBCFE6FF19DCE55269DC0F010E51BD
:1008C0000F012F1904E10F010F510F01301908E03A
:1008D000010EE66E100EE66EBDEC18F0E552E55224
:1008E000E552E7CFD9FF1200D9CFE6FFE1CFD9FF1C
:1008F000E652FE0EDB50146E156A090E145C000EF3
:10090000155803E3F36AF46A4CD0FE0EDBCFE6FF22
:1009100075EC00F0E5523FCFDFFF070EDF5C06E02D
:100920000B0EDF5C03E0F36AF46A3BD00F01315138
:100930000F012F5D0F0132510F01305921E30F01DB
:1009400029510F012B5D166E2C510F012A55176E80
:100950001606000E175A0F0131510F012F5D186E48
:1009600030510F013255196E1850165C146E195023
:100970001758156E14C0F3FF15C0F4FF12D011D034
:100980000F012F510F01315D146E32510F0130559F
:10099000156E1406000E155A14C0F3FF15C0F4FFAF
:1009A00000D0E552E552E7CFD9FF1200D9CFE6FFDC
:1009B000E1CFD9FF020EE126FE0EDB50146E156A60
:1009C000090E145C000E155802E3000E9AD0FE0EBC
:1009D000DBCFE6FF75EC00F0E552FE0EDBCFE6FF65
:1009E00083DFE552F3CFDEFFF4CFDDFFD9CFE9FFA0
:1009F000DACFEAFFEE50ED1003E1000E82D00ED008
:100A0000D9CFE9FFDACFEAFF010EEE1801E1ED5090
:100A100005E1FE0EDBCFE6FF3DDFE5520F010F01E2
:100A20004151010B1CE1DECF14F0DDCF15F00F01B9
:100A300029510F012B5D166E2C510F012A55176E8F
:100A4000D890173216321450165C1550175807E319
:100A5000FE0EDBCFE6FF1EDFE5520F014181010EE6
:100A6000E66EE66A010EE66ED950FD0FE66EFF0EE9
:100A7000DA20E66E44CFE6FF2FCFE6FF30CFE6FF69
:100A80004EEC2FF0146E080EE15E14500F012F2B68
:100A9000000E30230F012B510F012F5D0F012C5140
:100AA0000F01305904E329CF2FFF2ACF30FFD9CFD0
:100AB000E9FFDACFEAFF010EEE1801E1ED5006E1A1
:100AC000FE0EDBCFE6FFE6DEE55219D00F0140BB9C
:100AD00016D00F01408B06EC69F006C014F007C079
:100AE00015F0166A176A060E1426000E1522000E5F
:100AF0001622000E172214C03BFF15C03CFF010E4A
:100B000000D0146E020EE15C02E2E16AE552E16E91
:100B10001450E552E7CFD9FF1200D9CFE6FFE1CF5D
:100B2000D9FF060EE126040EDB6A050EDB6AFE0E17
:100B3000DB50146E156A090E145C000E155803E3A1
:100B4000F36AF46A1DD1FE0EDBCFE6FF75EC00F010
:100B5000E552FE0EDBCFE6FFC7DEE552020EF3CF15
:100B6000DBFF030EF4CFDBFFD950020FE96EDACFC3
:100B7000EAFFEE50ED1008E1FE0EDBCFE6FF8ADE65
:100B8000E552F36AF46AFCD0020EDBCFDEFFDBCF66
:100B9000DDFF020EDBCF14F0030EDBCF15F0FA0EF3
:100BA000DBCF16F0FB0EDBCF17F01450165C1550A0
:100BB000175805E2FA0EDBCFDEFFDBCFDDFF0F01BA
:100BC0000F014151010B1EE1020EDBCF14F0030EA9
:100BD000DBCF15F00F0129510F012B5D166E2C5143
:100BE0000F012A55176ED890173216321450165C22
:100BF0001550175807E3FE0EDBCFE6FF4BDEE5523C
:100C00000F014181DE500F012F250001146EDD50D0
:100C10000F0130210001156E0F012B51145C2C5176
:100C200015584BE30F012F510F012B5D146E2C5102
:100C30000F013055156E040E14C0DBFF050E15C0F4
:100C4000DBFF040EDBCFE6FF050EDBCFE6FF010E78
:100C5000E66EFC0EDBCFE6FFFD0EDBCFE6FF44CFFA
:100C6000E6FF2FCFE6FF30CFE6FF4EEC2FF0146EFD
:100C7000080EE15E1450040EDBCF14F0050EDBCF3E
:100C800015F0D950FC0FE96EFF0EDA20EA6E145011
:100C9000EE261550ED22040EDBCF14F0050EDBCF4F
:100CA00015F0D9CFE9FFDACFEAFF1450EE5E155008
:100CB000ED5A29CF2FFF2ACF30FFDECFE6FFDDCF61
:100CC000E6FF010EE66EFC0EDBCFE6FFFD0EDBCF8E
:100CD000E6FF44CFE6FF2FCFE6FF30CFE6FF4EEC36
:100CE0002FF0146E080EE15E1450D9CFE9FFDACF71
:100CF000EAFFEE500F012F27EE500F013023020EB6
:100D0000DBCF14F0030EDBCF15F0FA0EDBCF16F0BD
:100D1000FB0EDBCF17F01450165C1550175806E386
:100D2000FE0EDBCFE6FFB6DDE55219D00F0140BB6A
:100D300016D00F01408B06EC69F006C014F007C016
:100D400015F0166A176A060E1426000E1522000EFC
:100D50001622000E172214C03BFF15C03CFF040EE4
:100D6000DBCF16F0050EDBCF17F0DE501624146E25
:100D7000DD501720156E14C0F3FF15C0F4FF00D02E
:100D8000060EE15C02E2E16AE552E16EE552E7CF70
:100D9000D9FF1200D9CFE6FFE1CFD9FF060EE12639
:100DA000040EDB6A050EDB6AFE0EDB50146E156A5C
:100DB000090E145C000E155803E3F36AF46A19D1A6
:100DC000FE0EDBCFE6FF75EC00F0E552FE0EDBCF4A
:100DD000E6FF8ADDE552020EF3CFDBFF030EF4CF10
:100DE000DBFFD950020FE96EDACFEAFFEE50ED10CB
:100DF00008E1FE0EDBCFE6FF4DDDE552F36AF46A53
:100E0000F8D00F010F014151010B1EE1020EDBCFA3
:100E100014F0030EDBCF15F00F0129510F012B5DEC
:100E2000166E2C510F012A55176ED89017321632B4
:100E30001450165C1550175807E3FE0EDBCFE6FF83
:100E400029DDE5520F014181020EDBCFDEFFDBCF52
:100E5000DDFF020EDBCF14F0030EDBCF15F0FA0E30
:100E6000DBCF16F0FB0EDBCF17F01450165C1550DD
:100E7000175805E2FA0EDBCFDEFFDBCFDDFFDE50D9
:100E80000F012F250001146EDD500F0130210001EC
:100E9000156E0F012B51145C2C51155849E30F01AD
:100EA0002F510F012B5D146E2C510F013055156E13
:100EB000040E14C0DBFF050E15C0DBFF040EDBCFF4
:100EC000E6FF050EDBCFE6FFFC0EDBCFE6FFFD0EF7
:100ED000DBCFE6FF44CFE6FF2FCFE6FF30CFE6FFC4
:100EE000F3EC2FF0146E070EE15E1450040EDBCF0E
:100EF00014F0050EDBCF15F0D950FC0FE96EFF0E94
:100F0000DA20EA6E1450EE261550ED22040EDBCFE7
:100F100014F0050EDBCF15F0D9CFE9FFDACFEAFFE9
:100F20001450EE5E1550ED5A29CF2FFF2ACF30FF17
:100F3000DECFE6FFDDCFE6FFFC0EDBCFE6FFFD0EEA
:100F4000DBCFE6FF44CFE6FF2FCFE6FF30CFE6FF53
:100F5000F3EC2FF0146E070EE15E1450D9CFE9FFC9
:100F6000DACFEAFFEE500F012F27EE500F013023AA
:100F7000020EDBCF14F0030EDBCF15F0FA0EDBCF41
:100F800016F0FB0EDBCF17F01450165C15501758F7
:100F900006E3FE0EDBCFE6FF7DDCE55219D00F0144
:100FA00040BB16D00F01408B06EC69F006C014F070
:100FB00007C015F0166A176A060E1426000E1522D1
:100FC000000E1622000E172214C03BFF15C03CFF76
:100FD000040EDBCF16F0050EDBCF17F0DE50162423
:100FE000146EDD501720156E14C0F3FF15C0F4FF0A
:100FF00000D0060EE15C02E2E16AE552E16EE552E4
:10100000E7CFD9FF1200D9CFE6FFE1CFD9FFFC0E21
:10101000DBCF16F0FD0EDBCF17F016C0E6FF17C0D2
:10102000E6FFFC0EDBCFE6FFFD0EDBCFE6FF4EEC6E
:1010300068F0E552E552F3CF18F0F4CF19F018C07C
:10104000E6FF19C0E6FFFC0EDBCFE6FFFD0EDBCFAF
:10105000E6FFFE0EDBCFE6FF60DD1A6E050EE15EF9
:101060001A50E552E7CF17F0E552E7CF16F01650C9
:10107000F324146E1750F420156E14C0F3FF15C03E
:10108000F4FF00D0E552E7CFD9FF1200D9CFE6FF39
:10109000E1CFD9FFFC0EDBCF16F0FD0EDBCF17F052
:1010A00016C0E6FF17C0E6FFFC0EDBCF1AF0FD0E00
:1010B000DBCF1BF01C6A1AC0E6FF1BC0E6FF1CC09A
:1010C000E6FF5CEC68F0E552E552E55207C018F027
:1010D00008C019F018C0E6FF19C0E6FFFC0EDBCF10
:1010E000E6FFFD0EDBCFE6FFFE0EDBCFE6FF52DEB6
:1010F0001D6E050EE15E1D50E552E7CF17F0E5527B
:10110000E7CF16F01650F324146E1750F420156E26
:1011100014C0F3FF15C0F4FF00D0E552E7CFD9FFAC
:101120001200D9CFE6FFE1CFD9FF040EE126FE0E73
:10113000DB50146E156A090E145C000E155803E39B
:10114000F36AF46A33D0FE0EDBCFE6FF75EC00F0F5
:10115000E5520F0129510F012B5D146E2C510F0127
:101160002A55156E1406000E155A020E14C0DBFF28
:10117000030E15C0DBFFFE0EDBCFE6FF74EC04F0C0
:10118000E552F3CFDEFFF4CFDDFF020EDBCF16F02A
:10119000030EDBCF17F0DE50165C146EDD501758CF
:1011A000156E14C0F3FF15C0F4FF00D0040EE15C0F
:1011B00002E2E16AE552E16EE552E7CFD9FF1200A3
:1011C000D9CFE6FFE1CFD9FFFE0EDBCFE6FF1ED879
:1011D000E552F3CF14F0F4CF15F01450151012E0CF
:1011E000FE0EDBCFE6FF75EC00F0E55233CF35FFA6
:1011F00034CF36FF010EE66E100EE66EBDEC18F031
:10120000E552E552E552E7CFD9FF1200D9CFE6FF0C
:10121000E1CFD9FFFE0EDB50146E156A090E145C87
:10122000000E155803E3F36AF46A3FD0FE0EDBCFDD
:10123000E6FF75EC00F0E5520F0135510F01335D0B
:101240000F0136510F0134590FE30F0135510F01D2
:10125000335D146E34510F013655156E14C0F3FF13
:1012600015C0F4FF22D021D00F0135510F012D5DA3
:10127000166E2E510F013655176E010E1626000EF2
:1012800017220F012B510F01335D186E34510F01DE
:101290002C55196E16501824146E17501920156EFF
:1012A00014C0F3FF15C0F4FF00D0E552E7CFD9FF1B
:1012B0001200D9CFE6FFE1CFD9FF020EE126FE0EE4
:1012C000DBCFE6FFA3DFE552F3CFDEFFF4CFDDFF98
:1012D000D9CFE9FFDACFEAFFEE50ED1002E1000EC0
:1012E0005ED0FE0EDBCFE6FF75EC00F0E552D95084
:1012F000FC0FE96EFF0EDA20EA6EEE50ED1017E0FB
:10130000010EE66EE66A44CFE6FF35CFE6FF36CF44
:10131000E6FF010EE66EFC0EDBCFE6FFFD0EDBCF37
:10132000E6FF4EEC2FF0146E080EE15E14500F0134
:10133000352B000E36230F0135510F012D5D0F01A6
:1013400036510F012E5904E22BCF35FF2CCF36FF3B
:10135000D9CFE9FFDACFEAFF010EEE1801E1ED5037
:1013600003E10F01418519D00F0140BB16D00F01D9
:10137000408B06EC69F006C014F007C015F0166A41
:10138000176A1F0E1426000E1522000E1622000EDC
:10139000172214C03BFF15C03CFF010E00D0146E95
:1013A000020EE15C02E2E16AE552E16E1450E552A0
:1013B000E7CFD9FF1200D9CFE6FFE1CFD9FF040E66
:1013C000E126020EDB6A030EDB6AFE0EDBCFE6FFD0
:1013D0001DDFE552F3CFDEFFF4CFDDFFD9CFE9FF0C
:1013E000DACFEAFFEE50ED1003E1F36AF46A08D1B8
:1013F000FE0EDBCFE6FF75EC00F0E552FA0EDBCF18
:1014000014F0FB0EDBCF15F0DECF16F0DDCF17F0BA
:101410001450165C155017580AE2D9CFE9FFDACFFD
:10142000EAFFFA0EEECFDBFFFB0EEDCFDBFFFA0E8D
:10143000DB500F0135250001146EFB0EDB500F0150
:1014400036210001156E0F0114502D5D15502E59D7
:101450005AE20F0135510F012D5D146E2E510F010F
:101460003655156E010E1426000E1522020E14C0FC
:10147000DBFF030E15C0DBFFD950FC0FE96EFF0E3A
:10148000DA20EA6EEE50ED102AE0020EDBCFE6FF26
:10149000030EDBCFE6FF44CFE6FF35CFE6FF36CFC6
:1014A000E6FF010EE66EFC0EDBCFE6FFFD0EDBCFA6
:1014B000E6FF4EEC2FF0146E080EE15E1450020EA3
:1014C000DBCF14F0030EDBCF15F0D950FC0FE96E23
:1014D000FF0EDA20EA6E1450EE261550ED22020EB1
:1014E000DBCF14F0030EDBCF15F0D950FA0FE96E05
:1014F000FF0EDA20EA6E1450EE5E1550ED5A2BCF37
:1015000035FF2CCF36FFD950FC0FE96EFF0EDA20E5
:10151000EA6EEE50ED101AE0FA0EDBCFE6FFFB0E9E
:10152000DBCFE6FF44CFE6FF35CFE6FF36CFE6FF61
:10153000010EE66EFC0EDBCFE6FFFD0EDBCFE6FF15
:101540004EEC2FF0146E080EE15E1450FA0EDBCF55
:1015500008F0FB0EDBCF09F008500F0135270950CA
:101560000F013623020EDBCF14F0030EDBCF15F094
:10157000D950FA0FE96EFF0EDA20EA6E1450EE260B
:101580001550ED22DECF16F0DDCF17F0FA0EDB504E
:10159000165C146EFB0EDB501758156EFA0EDBCF7F
:1015A00018F0FB0EDBCF19F01450185C15501958C9
:1015B00003E30F01418519D00F0140BB16D00F0185
:1015C000408B06EC69F006C014F007C015F0166AEF
:1015D000176A1F0E1426000E1522000E1622000E8A
:1015E000172214C03BFF15C03CFFFA0EDBCF14F0EE
:1015F000FB0EDBCF15F014C0F3FF15C0F4FF00D0D5
:10160000040EE15C02E2E16AE552E16EE552E7CFE9
:10161000D9FF1200D9CFE6FFE1CFD9FF040EE126B2
:10162000FE0EDB50146E156A090E145C000E155880
:1016300003E3F36AF46A2FD0FE0EDBCFE6FF75EC0E
:1016400000F0E5520F012B510F012D5D146E2E514C
:101650000F012C55156E020E14C0DBFF030E15C0D2
:10166000DBFFFE0EDBCFE6FFD1DDE552F3CFDEFF81
:10167000F4CFDDFF020EDBCF16F0030EDBCF17F049
:10168000DE50165C146EDD501758156E14C0F3FF53
:1016900015C0F4FF00D0040EE15C02E2E16AE552FD
:1016A000E16EE552E7CFD9FF1200D9CFE6FFE1CFD7
:1016B000D9FF060EE126FE0EDB50146E156A090EE8
:1016C000145C000E155809E2D950FA0FE96EFF0EAE
:1016D000DA20EA6EEE50ED1003E1F36AF46A01D10C
:1016E000FE0EDBCFE6FF75EC00F0E552FE0EDBCF21
:1016F000E6FF8CDDE552020EF3CFDBFF030EF4CFE5
:10170000DBFFFA0EDBCF16F0FB0EDBCF17F0F80E87
:10171000DB501624146EF90EDB501720156E020EE6
:10172000DBCF18F0030EDBCF19F01450185C155006
:10173000195814E2020EDBCF16F0030EDBCF17F0C0
:10174000F80EDB50165C146EF90EDB501758156E50
:10175000FA0E14C0DBFFFB0E15C0DBFFF80EDB50EA
:101760000F0135250001146EF90EDB500F013621F3
:101770000001156E14C0DEFF15C0DDFFDECF14F0D2
:10178000DDCF15F00F0114502D5D15502E5915E2C7
:101790000F012B510F012D5D146E2E510F012C5591
:1017A000156E010E1426000E1522D9CFE9FFDACFEF
:1017B000EAFF1450EE5E1550ED5A0F01DE502D5D1C
:1017C000146EDD502E59156E010E1426000E1522D2
:1017D000040E14C0DBFF050E15C0DBFFFA0EDBCFD5
:1017E00014F0FB0EDBCF15F0040EDBCF16F0050E68
:1017F000DBCF17F01450165C155017581BE3FA0E88
:10180000DBCFE6FFFB0EDBCFE6FF44CFE6FFDECF0C
:10181000E6FFDDCFE6FF010EE66EFC0EDBCFE6FF56
:10182000FD0EDBCFE6FF4EEC2FF0146E080EE15EEE
:1018300014504CD0040EDBCFE6FF050EDBCFE6FFE5
:1018400044CFE6FFDECFE6FFDDCFE6FF010EE66E1A
:10185000FC0EDBCFE6FFFD0EDBCFE6FF4EEC2FF0FC
:10186000146E080EE15E1450FA0EDBCF16F0FB0E7C
:10187000DBCF17F0040EDB50165C146E050EDB5048
:101880001758156E14C0E6FF15C0E6FF44CFE6FFFB
:101890002BCFE6FF2CCFE6FF010EE66E040EDBCF6A
:1018A0001AF0050EDBCF1BF0FC0EDB501A24186E6D
:1018B000FD0EDB501B20196E18C0E6FF19C0E6FFB5
:1018C0004EEC2FF01C6E080EE15E1C50FA0EDBCFC2
:1018D00014F0FB0EDBCF15F014C0F3FF15C0F4FFBE
:1018E00000D0060EE15C02E2E16AE552E16EE552EB
:1018F000E7CFD9FF1200D9CFE6FFE1CFD9FFE652FB
:10190000FC0EDBCFE6FFFD0EDBCFE6FF010EE66E41
:10191000E66AD9CFE6FFDACFE6FFFE0EDBCFE6FFC1
:10192000C4DE146E070EE15E1450DF5000D0E552A5
:10193000E552E7CFD9FF1200D9CFE6FFE1CFD9FFBB
:10194000300EE126FE0EDB50146E156A090E145C93
:10195000000E155809E2D950FA0FE96EFF0EDA2091
:10196000EA6EEE50ED1003E1F36AF46AFBD2FE0E6C
:10197000DBCFE6FF75EC00F0E552FE0EDBCFE6FFB5
:1019800045DCE552F3CF16F0F4CF17F0F80EDB503C
:10199000165C146EF90EDB501758156E020E14C04B
:1019A000DBFF030E15C0DBFF020EDBCF14F0030ECE
:1019B000DBCF15F0FA0EDBCF16F0FB0EDBCF17F006
:1019C0001650145C1750155803E2F368F468CAD235
:1019D000D950F60FE96EFF0EDA20EA6EEE50ED10E8
:1019E0001DE0020EDBCF14F0030EDBCF15F0F60E78
:1019F000DBCF16F0F70EDBCF17F01450165C155046
:101A000017580CE2F60EDBCF08F0F70EDBCF09F02B
:101A1000020E08C0DBFF030E09C0DBFFF80EDB502F
:101A20000F0135250001146EF90EDB500F01362130
:101A30000001156E060E14C0DBFF070E15C0DBFF9C
:101A4000060EDBCF14F0070EDBCF15F00F0114509C
:101A50002D5D15502E5916E20F012B510F012D5DF2
:101A6000146E2E510F012C55156E010E1426000E0A
:101A70001522D950060FE96EDACFEAFF1450EE5E58
:101A80001550ED5A060EDBCFDEFFDBCFDDFF060E75
:101A9000DB500F012D5D0001146E070EDB500F01AE
:101AA0002E590001156E010E1426000E1522040E8B
:101AB00014C0DBFF050E15C0DBFFF80EDBCF08F00E
:101AC000F90EDBCF09F0060E08C0DBFF070E09C0D8
:101AD000DBFFFA0EDBCF08F0FB0EDBCF09F0080EC0
:101AE00008C0DBFF090E09C0DBFFFC0EDBCF08F0EE
:101AF000FD0EDBCF09F00A0E08C0DBFF0B0E09C09C
:101B0000DBFFFC0EDBCFE9FFDB2AFD0EDBCFEAFFBC
:101B100001E3DB2A0D0EEFCFDBFF0F0EDB6AF50EC4
:101B2000DB5016E0610EF36E0D0EDBCFF4FFF350C9
:101B3000F45C0EE30D0EDB507A080AE3E00E146E3F
:101B40000D0EDBCFE7FF1450E7260D0EE7CFDBFFCE
:101B5000200EF36E0E0EF3CFDBFF0E0EDBCF14F074
:101B6000040EDBCF15F0050EDBCF16F01450155C1C
:101B7000000E165806E2040EDB50E76E0E0EE7CF9D
:101B8000DBFF0E0EDBCF14F0020EDBCF15F0030EE1
:101B9000DBCF16F01450155C000E165806E2020E4C
:101BA000DB50E76E0E0EE7CFDBFF0E0EDBCFE6FF5E
:101BB000E66A44CFE6FFDECFE6FFDDCFE6FF010EAB
:101BC000E66ED950100FE66E000EDA20E66E4EEC8F
:101BD0002FF0146E080EE15E14500E0EDB50DE2660
:101BE000000EDD220E0EDB50146E156AD950040F64
:101BF000E96EDACFEAFF1450EE5E1550ED5AD95077
:101C0000040FE96EDACFEAFFEE50ED1008E12BCFBA
:101C1000DEFF2CCFDDFF040EDB68050EDB68F50E62
:101C2000DB5001E1E8D00C0EDB6A0E0EDB50F36EE8
:101C30000C0EDBCFF4FFF350F45C01E3DBD0D950A2
:101C4000100F156EDACF16F00C0EDB500F011524B5
:101C5000E96E000E1620EA6EEFCF14F0610E145CF0
:101C600021E3D950100F176EDACF18F00C0EDB50AD
:101C70000F011724E96E000E1820EA6EEF507A0863
:101C800011E3E00E166ED950100F146EDACF15F076
:101C90000C0EDB500F011424E96E000E1520EA6EC5
:101CA0001650EF26D950100F146EDACF15F00C0E27
:101CB000DB500F011424E96E000E1520EA6EEF5080
:101CC000F36E0D0EDB50F35C53E1FA0EDB06DBCF57
:101CD00014F0FB0E01E2DB06DBCF15F014501510FB
:101CE0001FE1060EDBCF18F0070EDBCF19F0080E50
:101CF000DB50185C166E090EDB501958176E0C0E6F
:101D0000DB5000011624146E000E1720156E010E14
:101D10001426000E152214C0F3FF15C0F4FF22D1C3
:101D2000FC0EDBCFE9FFDB2AFD0EDBCFEAFF01E390
:101D3000DB2A0D0EEFCFDBFF010EF36E0F0EF3CF9C
:101D4000DBFF610EF36E0D0EDBCFF4FFF350F45C9E
:101D50000EE30D0EDB507A080AE3E00E146E0D0E52
:101D6000DBCFE7FF1450E7260D0EE7CFDBFF3FD0B8
:101D7000080EDBCF08F0090EDBCF09F0FA0E08C021
:101D8000DBFFFB0E09C0DBFF0F0EDB5030E00A0E5D
:101D9000DBCF08F00B0EDBCF09F0FC0E08C0DBFF39
:101DA000FD0E09C0DBFFFC0EDBCFE9FFDB2AFD0ED9
:101DB000DBCFEAFF01E3DB2A0D0EEFCFDBFF610E85
:101DC000F36E0D0EDBCFF4FFF350F45C0EE30D0E5B
:101DD000DB507A080AE3E00E146E0D0EDBCFE7FF4E
:101DE0001450E7260D0EE7CFDBFF0F0EDB6A0C0E5B
:101DF000DB2A1BD788D00C0EDB6A0E0EDB50F36E8D
:101E00000C0EDBCFF4FFF350F45C01E37CD0D9502F
:101E1000100F146EDACF15F00C0EDB500F011424E6
:101E2000E96E000E1520EA6EEF50F36E0D0EDB50DA
:101E3000F35C3DE1FA0EDB06DBCF14F0FB0E01E2B2
:101E4000DB06DBCF15F0145015101FE1060EDBCFBB
:101E500018F0070EDBCF19F0080EDB50185C166E79
:101E6000090EDB501958176E0C0EDB5000011624BA
:101E7000146E000E1720156E010E1426000E15228A
:101E800014C0F3FF15C0F4FF6DD0FC0EDBCFE9FFEB
:101E9000DB2AFD0EDBCFEAFF01E3DB2A0D0EEFCFDD
:101EA000DBFF010EF36E0F0EF3CFDBFF29D0080E20
:101EB000DBCF08F0090EDBCF09F0FA0E08C0DBFF1C
:101EC000FB0E09C0DBFF0F0EDB501AE00A0EDBCF62
:101ED00008F00B0EDBCF09F0FC0E08C0DBFFFD0E97
:101EE00009C0DBFFFC0EDBCFE9FFDB2AFD0EDBCFF9
:101EF000EAFF01E3DB2A0D0EEFCFDBFF0F0EDB6AFB
:101F00000C0EDB2A7AD70E0EDB50146E156AD950F0
:101F1000020FE96EDACFEAFF1450EE5E1550ED5A6B
:101F2000020EDBCF14F0030EDBCF15F0FA0EDBCF81
:101F300016F0FB0EDBCF17F01650145C1750155837
:101F400003E2F368F4680ED00E0EDB50146E156ACF
:101F5000D950060FE96EDACFEAFF1450EE2615507D
:101F6000ED22F6D5300EE15C02E2E16AE552E16E67
:101F7000E552E7CFD9FF1200D9CFE6FFE1CFD9FF75
:101F8000300EE126FE0EDB50146E156A090E145C4D
:101F9000000E155809E2D950FA0FE96EFF0EDA204B
:101FA000EA6EEE50ED1003E1F36AF46A01D3FE0E1F
:101FB000DBCFE6FF75EC00F0E552FE0EDBCFE6FF6F
:101FC00006EC09F0E552F3CF16F0F4CF17F0F80E57
:101FD000DB50165C146EF90EDB501758156E020EAE
:101FE00014C0DBFF030E15C0DBFF020EDBCF14F0C5
:101FF000030EDBCF15F0FA0EDBCF16F0FB0EDBCFB6
:1020000017F01650145C1750155803E2F368F46883
:10201000CFD2D950F60FE96EFF0EDA20EA6EEE50FD
:10202000ED101DE0020EDBCF14F0030EDBCF15F038
:10203000F60EDBCF16F0F70EDBCF17F01450165C60
:10204000155017580CE2F60EDBCF08F0F70EDBCF79
:1020500009F0020E08C0DBFF030E09C0DBFFF80E1B
:10206000DB500F0135250001146EF90EDB500F0116
:1020700036210001156E060E14C0DBFF070E15C0D9
:10208000DBFF060EDBCF14F0070EDBCF15F00F01E0
:1020900014502D5D15502E5916E20F012B510F01D2
:1020A0002D5D146E2E510F012C55156E010E142648
:1020B000000E1522D950060FE96EDACFEAFF145050
:1020C000EE5E1550ED5A060EDBCFDEFFDBCFDDFFF7
:1020D000060EDB500F012D5D0001146E070EDB5064
:1020E0000F012E590001156E010E1426000E152247
:1020F000040E14C0DBFF050E15C0DBFFF80EDBCFAE
:1021000008F0F90EDBCF09F0060E08C0DBFF070E62
:1021100009C0DBFFFA0EDBCF08F0FB0EDBCF09F0C6
:10212000080E08C0DBFF090E09C0DBFFFC0EDBCF89
:1021300008F0FD0EDBCF09F00A0E08C0DBFF0B0E26
:1021400009C0DBFFFC0EDBCFF6FFDB2AFD0EDBCF89
:10215000F7FF01E3DB2A08000D0EF5CFDBFF0F0EC2
:10216000DB6AF50EDB5016E0610EF36E0D0EDBCF71
:10217000F4FFF350F45C0EE30D0EDB507A080AE333
:10218000E00E146E0D0EDBCFE7FF1450E7260D0EA8
:10219000E7CFDBFF200EF36E0E0EF3CFDBFF0E0E4C
:1021A000DBCF14F0040EDBCF15F0050EDBCF16F0FD
:1021B0001450155C000E165806E2040EDB50E76E54
:1021C0000E0EE7CFDBFF0E0EDBCF14F0020EDBCFDF
:1021D00015F0030EDBCF16F01450155C000E1658E8
:1021E00006E2020EDB50E76E0E0EE7CFDBFF0E0EAF
:1021F000DBCFE6FFE66A44CFE6FFDECFE6FFDDCFCA
:10220000E6FF010EE66ED950100FE66E000EDA20E2
:10221000E66E4EEC2FF0146E080EE15E14500E0EBA
:10222000DB50DE26000EDD220E0EDB50146E156A2A
:10223000D950040FE96EDACFEAFF1450EE5E155064
:10224000ED5AD950040FE96EDACFEAFFEE50ED10E7
:1022500008E12BCFDEFF2CCFDDFF040EDB68050E7F
:10226000DB68F50EDB5001E1EAD00C0EDB6A0E0EE6
:10227000DB50F36E0C0EDBCFF4FFF350F45C01E3A4
:10228000DDD0D950100F156EDACF16F00C0EDB50E2
:102290000F011524E96E000E1620EA6EEFCF14F040
:1022A000610E145C21E3D950100F176EDACF18F0CD
:1022B0000C0EDB500F011724E96E000E1820EA6E99
:1022C000EF507A0811E3E00E166ED950100F146E1D
:1022D000DACF15F00C0EDB500F011424E96E000E5E
:1022E0001520EA6E1650EF26D950100F146EDACF73
:1022F00015F00C0EDB500F011424E96E000E1520B2
:10230000EA6EEF50F36E0D0EDB50F35C54E1FA0E03
:10231000DB06DBCF14F0FB0E01E2DB06DBCF15F0B2
:10232000145015101FE1060EDBCF18F0070EDBCF9F
:1023300019F0080EDB50185C166E090EDB501958A8
:10234000176E0C0EDB5000011624146E000E1720C1
:10235000156E010E1426000E152214C0F3FF15C0D1
:10236000F4FF26D1FC0EDBCFF6FFDB2AFD0EDBCF20
:10237000F7FF01E3DB2A08000D0EF5CFDBFF010EAE
:10238000F36E0F0EF3CFDBFF610EF36E0D0EDBCF9E
:10239000F4FFF350F45C0EE30D0EDB507A080AE311
:1023A000E00E146E0D0EDBCFE7FF1450E7260D0E86
:1023B000E7CFDBFF40D0080EDBCF08F0090EDBCF04
:1023C00009F0FA0E08C0DBFFFB0E09C0DBFF0F0EA1
:1023D000DB5031E00A0EDBCF08F00B0EDBCF09F04B
:1023E000FC0E08C0DBFFFD0E09C0DBFFFC0EDBCFDF
:1023F000F6FFDB2AFD0EDBCFF7FF01E3DB2A080047
:102400000D0EF5CFDBFF610EF36E0D0EDBCFF4FF8B
:10241000F350F45C0EE30D0EDB507A080AE3E00E95
:10242000146E0D0EDBCFE7FF1450E7260D0EE7CF3D
:10243000DBFF0F0EDB6A0C0EDB2A19D78AD00C0EDD
:10244000DB6A0E0EDB50F36E0C0EDBCFF4FFF350A5
:10245000F45C01E37ED0D950100F146EDACF15F082
:102460000C0EDB500F011424E96E000E1520EA6EED
:10247000EF50F36E0D0EDB50F35C3EE1FA0EDB061F
:10248000DBCF14F0FB0E01E2DB06DBCF15F01450BE
:1024900015101FE1060EDBCF18F0070EDBCF19F089
:1024A000080EDB50185C166E090EDB501958176EBB
:1024B0000C0EDB5000011624146E000E1720156E52
:1024C000010E1426000E152214C0F3FF15C0F4FFF0
:1024D0006FD0FC0EDBCFF6FFDB2AFD0EDBCFF7FF64
:1024E00001E3DB2A08000D0EF5CFDBFF010EF36ED2
:1024F0000F0EF3CFDBFF2AD0080EDBCF08F0090E5A
:10250000DBCF09F0FA0E08C0DBFFFB0E09C0DBFFD2
:102510000F0EDB501BE00A0EDBCF08F00B0EDBCFFB
:1025200009F0FC0E08C0DBFFFD0E09C0DBFFFC0E4E
:10253000DBCFF6FFDB2AFD0EDBCFF7FF01E3DB2A63
:1025400008000D0EF5CFDBFF0F0EDB6A0C0EDB2A49
:1025500078D70E0EDB50146E156AD950020FE96E53
:10256000DACFEAFF1450EE5E1550ED5A020EDBCFC3
:1025700014F0030EDBCF15F0FA0EDBCF16F0FB0ED6
:10258000DBCF17F01650145C1750155803E2F368B0
:10259000F4680ED00E0EDB50146E156AD950060F7B
:1025A000E96EDACFEAFF1450EE261550ED22F2D58F
:1025B000300EE15C02E2E16AE552E16EE552E7CFFE
:1025C000D9FF1200D9CFE6FFE1CFD9FFF80EDBCF5C
:1025D000E6FFF90EDBCFE6FFFA0EDBCFE6FFFB0EE0
:1025E000DBCFE6FFFC0EDBCFE6FF010EE66EE66A10
:1025F000D950FD0FE66EFF0EDA20E66EFE0EDBCF41
:10260000E6FF9CEC0CF0146E0A0EE15E145000D054
:10261000E552E7CFD9FF1200D9CFE6FFE1CFD9FFCE
:10262000060EE126DF6ADF50146E156A090E145C8F
:10263000000E155801E3C8D3DFCFE6FF75EC00F0BC
:10264000E552030EDB6A010EDB6A020EDB6A0F0144
:102650000F014151020B05E10F010F014151040B24
:1026600012E00FEC52F000090EE0100EF36E030EB4
:10267000F3CFDBFF0F014151040B01E0010EE76EC8
:10268000010EE7CFDBFF0F0140AB15D006EC69F080
:102690000F0106503B5D146E07503C59156E153402
:1026A00004E214500008000E155405E3100EF36EFA
:1026B000030EF3CFDBFF0F0140AD15D006EC69F040
:1026C0000F0106503D5D146E07503E59156E1534CE
:1026D00004E214500008000E155405E3100EF36ECA
:1026E000030EF3CFDBFF0B0E0F013F5D18E106EC8D
:1026F00069F00F0106503D5D146E07503E59156E8E
:10270000153404E214500008000E155408E3110EAD
:10271000F36E030EF3CFDBFF0F010C0E3F6F040EC1
:102720000F013F5D01E04BD1040EDB6A050EDB6A51
:10273000040EDBCF14F0050EDBCF15F0030E145C96
:10274000000E155801E33BD1040EDBCFE9FF050E67
:10275000DBCFEAFF140EEA02F3CFEAFF140EE90220
:10276000F3CFE9FFF450EA26C40EE926030EEA226D
:10277000100EE926000EEA22EE50ED1001E11FD105
:10278000040EDBCFE9FF050EDBCFEAFF140EEA02F1
:10279000F3CFEAFF140EE902F3CFE9FFF450EA2683
:1027A000C40EE926030EEA22100EE926000EEA22E4
:1027B000EECF14F0EFCF15F00F014251141802E1E3
:1027C0004351151801E0F5D0C7EC00F00A0EE66E93
:1027D000E66A040EDBCFE9FF050EDBCFEAFF140E3D
:1027E000EA02F3CFEAFF140EE902F3CFE9FFF45057
:1027F000EA26C40EE926030EEA22E9CF14F0EACF56
:1028000015F014C0E6FF15C0E6FF180EE66E0F0EB9
:10281000E66EE6EC67F0166E060EE15E1650040EEC
:10282000DBCFE9FF050EDBCFEAFF140EEA02F3CFA0
:10283000EAFF140EE902F3CFE9FFF450EA26C40ED2
:10284000E926030EEA220A0EE926000EEA22EECF5E
:1028500010FFEDCF11FF040EDBCFE9FF050EDBCF3C
:10286000EAFF140EEA02F3CFEAFF140EE902F3CFF7
:10287000E9FFF450EA26C40EE926030EEA220C0E04
:10288000E926000EEA22EECF0AFFEECF0BFFEECFD5
:102890000CFFEFCF0DFF0F010A2B000E0F010B23D2
:1028A000000E0F010C23000E0F010D230F010F016D
:1028B0001A510F011825166E0F010F011B510F0140
:1028C0001921176E16500F011025146E17500F01A5
:1028D0001121156E14500F0112190F01426F15507E
:1028E0000F0113190F01436F120EF36E030EF3CF96
:1028F000DBFF0F01060E3F6F040EDBCF14F0050E59
:10290000DBCF15F0020ED8801456000E1556140EAB
:102910001502F3CF15F0140E1402F3CF14F0F45097
:10292000152614C0E6FF15C0E6FF010EE66E010E87
:10293000E76E040EDBCF16F0050EDBCF17F0E75085
:102940001626000E1722140E1702F3CF17F0140EDE
:102950001602F3CF16F0F4501726C40E1626030EF7
:10296000172216C0E6FF17C0E6FF010EE66E040E42
:10297000DBCF18F0050EDBCF19F0140E1902F3CFE0
:1029800019F0140E1802F3CF18F0F4501926C40EE3
:102990001826030E192218C0E6FF19C0E6FF4EECF8
:1029A0002FF01A6E080EE15E1A500301FC6BFD6BEE
:1029B00006D0040EDB2A050E01E3DB2AB9D6030E8E
:1029C000DB500DE0010EDB5002E0000E01D0010EE5
:1029D000E66E030EDBCFE6FFD0DBE552E5520F01DA
:1029E00040B95AD0070E0F013F5D55E1DFEC68F0AA
:1029F0000F013751065C146E0F0138510758156EE0
:102A00000F0139510858166E0F013A510958176EC7
:102A10000001800E171401E0D5D10F014051070BC2
:102A200006081AE10F014051080B01E0010EE76EA4
:102A3000030EE7CFDBFFDFCFE6FF79EC03F0E552D3
:102A4000DFCFE6FF79EC03F0E552030EDB5003E144
:102A50000F010E0E3F6FB6D1C7EC00F0020EE66E0E
:102A6000100EE66E8ADBE552E552DFEC68F006C038
:102A700037FF07C038FF08C039FF09C03AFF740E9E
:102A80000F013727350E0F013823060E0F013923AA
:102A9000000E0F013A2396D1DFEC68F00F01375199
:102AA000065C146E0F0138510758156E0F0139512D
:102AB0000858166E0F013A510958176E0001800E22
:102AC000171401E07FD1C7EC00F00F013F510C0A51
:102AD00001E1EED0060A01E1D3D0030A01E1C5D03D
:102AE000010A01E1AAD00F0A01E191D00C0A01E12B
:102AF0008ED00D0A6BE0030A51E0060A15E0010AC8
:102B000001E0EED006EC69F006C03BFF07C03CFFD9
:102B1000180EE66E0F0EE66EBAEC5DF0E552E55269
:102B20000F01030E3F6FDDD01C0EE66E0F0EE66E3A
:102B3000180EE66E0F0EE66E2EEC5EF0E552E552D4
:102B4000E552E55200091FE106EC69F00F013B5127
:102B5000065C146E3C510758156E0F011450025D4F
:102B6000155003590FE2060E0F01275D08E20F0111
:102B7000272B0F01D89002370337043705370F0191
:102B8000020E3F6FAED0020EF36E030EF3CFDBFFEB
:102B9000010EDB6A0F01050E3F6FA3D0020EF36E2C
:102BA000030EF3CFDBFFDE52010EDD6E040E0F01CC
:102BB000275D0BE30F01040E276F0F01200E026F3C
:102BC000EF0E036F090E046F056B8BD0020E0F0121
:102BD000275D09E2120EF36E030EF3CFDBFFDE5228
:102BE000010EDD6E13D00F0140A70BD0140EF36E53
:102BF000030EF3CFDBFF010EF36E020EF3CFDBFF0C
:102C000005D0020EF36E030EF3CFDBFF6AD0050E84
:102C10000F01275D09E2100EF36E030EF3CFDBFF09
:102C2000DE52010EDD6E08D00F01080E3F6F110E4F
:102C3000F36E030EF3CFDBFF54D0050E0F01275DBB
:102C400009E2110EF36E030EF3CFDBFFDE52010E2D
:102C5000DD6E0AD0140EF36E030EF3CFDBFF010E10
:102C6000F36E020EF3CFDBFF3CD0140EF36E030EB7
:102C7000F3CFDBFF010EF36E020EF3CFDBFF31D09B
:102C8000050E0F01275D09E2100EF36E030EF3CF60
:102C9000DBFFDE52010EDD6E0AD0140EF36E030E62
:102CA000F3CFDBFF010EF36E020EF3CFDBFF19D083
:102CB000050E0F01275D09E2110EF36E030EF3CF2F
:102CC000DBFFDE52010EDD6E0AD0140EF36E030E32
:102CD000F3CFDBFF010EF36E020EF3CFDBFF01D06B
:102CE00000D0030EDB5069E0010EDB505EE00F0107
:102CF000272B0F01D89002370337043705370F0110
:102D000031510F010E5D146E0F510F013255156ECA
:102D1000040E14C0DBFF050E15C0DBFF0F0131519F
:102D20000F010E5D0F0132510F010F5912E20F0119
:102D300029510F012B5D146E2C510F012A55156E70
:102D4000D950040FE96EDACFEAFF1450EE26155081
:102D5000ED22040EDBCF14F0050EDBCF15F0166A62
:102D6000176A14500F01065F15500F01075B1650CC
:102D70000F01085B17500F01095B040EDBCF08F051
:102D8000050EDBCF09F008500F01142709500F0181
:102D9000152331CF0EFF32CF0FFFE66A030EDBCFD4
:102DA000E6FFEBD9E552E55208D0010EE66E030EC0
:102DB000DBCFE6FFE2D9E552E552020EDB5002E03E
:102DC0002CEC21F0DF2A2FD4040EDB6A050EDB6A1F
:102DD000040EDBCF14F0050EDBCF15F0030E145CF0
:102DE000000E155801E3B7D0040EDBCFE9FF050E46
:102DF000DBCFEAFF140EEA02F3CFEAFF140EE9027A
:102E0000F3CFE9FFF450EA26C40EE926030EEA22C6
:102E1000100EE926000EEA22EE50ED1001E19BD0E3
:102E2000040EDBCFE9FF050EDBCFEAFF140EEA024A
:102E3000F3CFEAFF140EE902F3CFE9FFF450EA26DC
:102E4000C40EE926030EEA22120EE926000EEA223B
:102E5000EECF16F0EFCF17F016C0E6FF17C0E6FF73
:102E600006EC69F0E552E7CF17F0E552E7CF16F030
:102E70001650065C146E17500758156EDC0ED8807D
:102E80001454010E155461E2040EDBCF14F0050E4C
:102E9000DBCF15F0020ED8801456000E1556140E16
:102EA0001502F3CF15F0140E1402F3CF14F0F45002
:102EB000152614C0E6FF15C0E6FF010EE66E010EF2
:102EC000E76E040EDBCF16F0050EDBCF17F0E750F0
:102ED0001626000E1722140E1702F3CF17F0140E49
:102EE0001602F3CF16F0F4501726C40E1626030E62
:102EF000172216C0E6FF17C0E6FF010EE66E040EAD
:102F0000DBCF18F0050EDBCF19F0140E1902F3CF4A
:102F100019F0140E1802F3CF18F0F4501926C40E4D
:102F20001826030E192218C0E6FF19C0E6FF4EEC62
:102F30002FF01A6E080EE15E1A500301FC6BFD6B58
:102F4000040EDB06050E01E2DB06040EDB2A050E8D
:102F500001E3DB2A3DD7060EE15C02E2E16AE552BD
:102F6000E16EE552E7CFD9FF1200D9CFE6FFE1CFFE
:102F7000D9FF250EE126FD0EDBCFE9FFFE0EDBCFEC
:102F8000EAFF140EEECFDBFF150EEECFDBFF160EC1
:102F9000EECFDBFF170EEECFDBFFFB0EDBCFE9FF43
:102FA000FC0EDBCFEAFF180EEECFDBFF190EEECFE3
:102FB000DBFF1A0EEECFDBFF1B0EEECFDBFF1C0E8E
:102FC000DB6A060EF36E1D0EF3CFDBFFF90EDBCFCF
:102FD00008F0FA0EDBCF09F01E0E08C0DBFF1F0E53
:102FE00009C0DBFF1E0EDBCFE6FF1F0EDBCFE6FFC7
:102FF000A8EC4EF0E552E5521E0EF3CFDBFF1F0E9C
:10300000F4CFDBFF0C0EE66EE66AD950140FE66EC5
:10301000000EDA20E66E25EC4FF0E552E552E5525F
:10302000E552F3CF14F0F4CF15F0141E151E200E48
:1030300014C0DBFF210E15C0DBFFF90EDBCFE6FF6E
:10304000FA0EDBCFE6FFFEEC54F0E552E552220E1D
:10305000F3CFDBFF230EF4CFDBFF200EDBCF14F02A
:10306000210EDBCF15F0220EDB50141803E1230EE6
:10307000DB50151804E02CEC52F0010E72D0000E5B
:10308000E66EE66A78EC60F0E552E552140EE66E04
:10309000E66AD9CFE6FFDACFE6FF42EC57F0E55219
:1030A000E552E552E552D9CFE6FFDACFE6FF14EC60
:1030B00020F0E552E552D9500C0FE96EDACFEAFF65
:1030C000EF50F00BE842E842E842E842040DF350CA
:1030D000146E156A140E145E000E155A240E14C0D8
:1030E000DBFF240EDB50166E176AF90EDBCF08F0FB
:1030F000FA0EDBCF09F01650085C146E1750095811
:10310000156E140E145E000E155AF90E14C0DBFF76
:10311000FA0E15C0DBFFFD0EDBCFE6FFFE0EDBCFA8
:10312000E6FFD9CFE6FFDACFE6FFEEEC1CF0E55282
:10313000E552E552E552000910E0F90EDBCFE6FF5B
:10314000FA0EDBCFE6FFD9CFE6FFDACFE6FF3FECA2
:1031500022F0E552E552E552E5522CEC52F0010E18
:1031600000D0146E250EE15C02E2E16AE552E16EE8
:103170001450E552E7CFD9FF1200D9CFE6FFE1CFD7
:10318000D9FF280EE126C7EC00F0FE0EDBA004D02C
:103190000F014187FE0EDB900F01409B0F01409D08
:1031A0000F01409F0F0141930F0141950F01419184
:1031B0000FEC52F0000901E1FBD7FE0EDB50060BCD
:1031C00005E0260EDB6A270EDB6A7CD10F010E516B
:1031D0000F012F1904E10F010F510F01301905E103
:1031E000260EDB6A270EDB6A4ED10F012F510F012D
:1031F0000E5D0F0130510F010F5959E20F010E51B1
:103200000F012F5D146E30510F010F55156E260EF4
:1032100014C0DBFF270E15C0DBFF260EDBCF14F03A
:10322000270EDBCF15F00F011450145D1550155902
:1032300006E2260E14CFDBFF270E15CFDBFF260E8E
:10324000DBCF14F0270EDBCF15F00F011450255DF6
:103250001550265908E2260E25CFDBFF270E26CF74
:10326000DBFF0F014185260EDBCFE6FF270EDBCF0C
:10327000E6FF44CFE6FF0ECFE6FF0FCFE6FFE66A9C
:10328000050EE66E0B0EE66E4EEC2FF0146E080E79
:10329000E15E1450260EDBCF08F0270EDBCF09F0DD
:1032A00008500F010E2709500F010F23ECD00F011A
:1032B0000E510F012B5D146E2C510F010F55156E21
:1032C000240E14C0DBFF250E15C0DBFF240EDB50DF
:1032D0000F012F250001166E250EDB500F01302146
:1032E0000001176E0F012951165C146E2A511758F0
:1032F000156E260E14C0DBFF270E15C0DBFF260E51
:10330000DBCF14F0270EDBCF15F00F011450145D46
:103310001550155906E2260E14CFDBFF270E15CFE8
:10332000DBFF260EDBCF14F0270EDBCF15F00F01ED
:103330001450255D1550265908E2260E25CFDBFFD7
:10334000270E26CFDBFF0F014185240EDBCF14F0C3
:10335000250EDBCF15F0260EDBCF16F0270EDBCFC8
:1033600017F01450165C155017580CE2260EDBCFE0
:1033700008F0270EDBCF09F0240E08C0DBFF250E76
:1033800009C0DBFF240EDBCFE6FF250EDBCFE6FF17
:1033900044CFE6FF0ECFE6FF0FCFE6FFE66A050E4D
:1033A000E66E0B0EE66E4EEC2FF0146E080EE15E2C
:1033B0001450260EDBCF16F0270EDBCF17F0240EAD
:1033C000DB50165C146E250EDB501758156E240E5C
:1033D00014C0DBFF250E15C0DBFFD950240FE96EAA
:1033E000DACFEAFFEE50ED102AE0240EDBCFE6FF45
:1033F000250EDBCFE6FF44CFE6FF29CFE6FF2ACF3D
:10340000E6FFE66A0F010E510F012B5D146E2C5181
:103410000F010F55156E166A176A050E14260B0E4E
:103420001522000E1622000E172214C0E6FF15C04A
:10343000E6FF4EEC2FF0186E080EE15E1850260ED7
:10344000DBCF08F0270EDBCF09F008500F010E2765
:1034500009500F010F230F012B510F010E5D0F01BA
:103460002C510F010F590FE30F0129510F012B5D53
:10347000146E2C510F012A55156E14500F010E5F5A
:1034800015500F010F5B0F0141A71CD0260EDBCF9B
:1034900014F0270EDBCF15F00F011451141802E1C0
:1034A000155115180FE0260EDBCF16F0270EDBCFD7
:1034B00017F00F012551161802E12651171802E0E6
:1034C000FE0EDB80D950260FE96EDACFEAFFEE5010
:1034D000ED1004E1FE0EDB50030B3BE0260EDBCFCC
:1034E00008F0270EDBCF09F008500F01145F0950D8
:1034F0000F01155BD950260FE96EDACFEAFFEE50C7
:10350000ED1002E0FE0EDB86FD0EDBA009D00F0100
:10351000276B0F01F20E026F9E0E036F046B056B9B
:10352000DFEC68F006500F0102250F01376F0750DE
:103530000F0103210F01386F08500F0104210F0103
:10354000396F09500F0105210F013A6F0F014089B2
:103550004ED0FD0EDBA224D0400EE96E0F0EEA6EB7
:10356000EF50070BE82AF36EF350070BF36EF46E7F
:10357000F80EEF14F310EF6EF4500F010607000E73
:103580000F01075B000E0F01085B000E0F01095BC6
:10359000010EF36E260EF3CFDBFF270EDB6A27D07A
:1035A0000F0140A924D0FD0EDBB00BD00F01275135
:1035B00008E00F0127070F01D890053304330333C8
:1035C0000233DFEC68F006500F0102250F01376F60
:1035D00007500F0103210F01386F08500F0104211C
:1035E0000F01396F09500F0105210F013A6F020ECB
:1035F00012CFDBFF030E13CFDBFF040E10CFDBFF78
:10360000050E11CFDBFF060E06CFDBFF070E07CF3F
:10361000DBFF080E08CFDBFF090E09CFDBFF0A0E28
:103620000ACFDBFF0B0E0BCFDBFF0C0E0CCFDBFF4B
:103630000D0E0DCFDBFF0F0EDB9CDB9E0E0EDB9025
:10364000DB92DB94DB96FE0EDB50E76E0F0EE7CFCE
:10365000DBFF140EDB6A150EDB6A260EDBCF14F0DF
:10366000270EDBCF15F0000114500F0106270001D3
:1036700015500F010723000E08230923FE0EDBA2BD
:1036800021D0FE0EDBB808D00A0EDB6A0B0EDB6A17
:103690000C0EDB6A0D0EDB6A0F0124A30BD0D95090
:1036A000060FE96EDACFEAFFEE06000EEE5AEE5A8A
:1036B000EE5A08D00F01062B000E0723082309231A
:1036C0000F012483FE0EDBA002D00F0124810F0125
:1036D00035510F01335D0F0136510F0134591FE38E
:1036E0000F012B510F012D5D166E2E510F012C5520
:1036F000176E0F0135510F01335D186E34510F01F4
:103700003655196E1850165C146E19501758156EF0
:10371000100E14C0DBFF110E15C0DBFF12D00F011D
:1037200033510F01355D146E36510F013455156E4E
:103730001406000E155A100E14C0DBFF110E15C032
:10374000DBFF76EC52F0F3CFDEFFF4CFDDFFDECF10
:1037500014F0DDCF15F0400E145C000E155803E296
:10376000DE6ADD6A08D0D9CFE9FFDACFEAFF400E82
:10377000EE5E000EED5A100EDBCF14F0110EDBCF13
:1037800015F0DECF16F0DDCF17F01450165C155093
:1037900017580AE2D9CFE9FFDACFEAFF100EEECFD1
:1037A000DBFF110EEDCFDBFFD950020FE66E000EEE
:1037B000DA20E66E14EC20F0E552E552D950260FDF
:1037C000E96EDACFEAFF140EEE26000EED220E0EA1
:1037D000DB88DB9ADB8CDB9EFE0EDBA237D0D95078
:1037E000260FE96EDACFEAFF040EEE26000EED2278
:1037F000020EF36E160EF3CFDBFF040EF36E170E00
:10380000F3CFDBFF020EF36E180EF3CFDBFF180EC3
:10381000F36E190EF3CFDBFF010E146ED9500E0FAD
:10382000E96EDACFEAFFEF50F00BE842E842E842F7
:10383000E84214240F0BF36EF46EF346F346F3469E
:10384000F3460F0EEF14F310EF6EF4501A0E00CE85
:10385000DBFF1B0E01CEDBFF1C0E02CEDBFF1D0EBD
:1038600003CEDBFF1E0E18CFDBFF1F0E19CFDBFFD1
:10387000200E1ACFDBFF210E1BCFDBFF220EDB6AEF
:10388000060EF36E230EF3CFDBFF260EDBCF08F020
:10389000270EDBCF09F0240E08C0DBFF250E09C080
:1038A000DBFF240EDBCFE6FF250EDBCFE6FFA8EC27
:1038B0004EF0E552E552240EF3CFDBFF250EF4CF98
:1038C000DBFF0C0EE66EE66AD9501A0FE66E000EAC
:1038D000DA20E66E25EC4FF0E552E552E552E5526E
:1038E000F3CF14F0F4CF15F0141E151E120E14C0F1
:1038F000DBFF130E15C0DBFFDD0EE66E0A0EE66E73
:1039000057EC54F0E552E552260EDBCFE6FF270ECA
:10391000DBCFE6FF060EE66E180EE66E0F0EE66EC5
:10392000C5EC5FF0146E050EE15E1450140EE66EE9
:10393000E66AD950020FE66E000EDA20E66E9FECC2
:1039400057F0E552E552E552E552FE0EDBA20FD0EC
:10395000040EE66EE66AD950160FE66E000EDA2007
:10396000E66E9FEC57F0E552E552E552E552F10E56
:10397000E66E0A0EE66E7AEC54F0E552E552260E3B
:10398000DBCFE6FF270EDBCFE6FFFEEC54F0E5527F
:10399000E552F3CFDEFFF4CFDDFF010EE66E0B0E36
:1039A000E66E57EC54F0E552E552020EE66EE66A1A
:1039B000D9CFE6FFDACFE6FF9FEC57F0E552E552AC
:1039C000E552E552FCEC53F0280EE15C02E2E16ABC
:1039D000E552E16EE552E7CFD9FF1200D9CFE6FFFD
:1039E000E1CFD9FF060EE126FD0EDBCFE9FFFE0E8B
:1039F000DBCFEAFF020EE926000EEA22EE50ED10C0
:103A000002E1000E05D3DE52FE0EDD6EFB0EDBCFB3
:103A1000E9FFFC0EDBCFEAFF020EE926000EEA22E8
:103A2000EECF1AF0EFCF1BF0FB0EDBCFE9FFFC0E61
:103A3000DBCFEAFF1A50EE24186E1B50EE20196EF1
:103A4000FD0EDBCFE9FFFE0EDBCFEAFF1850EE24C0
:103A5000166E1950EE20176EFD0EDBCFE9FFFE0E3D
:103A6000DBCFEAFF020EE926000EEA221650EE181E
:103A7000146E1750EE18156E020E14C0DBFF030E05
:103A800015C0DBFFDF6ADF50146E156A090E145C87
:103A9000000E155801E379D0DFCFE6FF75EC00F09A
:103AA000E5520D0E0F013F5D02E16DD02BD0040EEB
:103AB0000F013F5D1AE1FD0EDBCFE9FFFE0EDBCF0C
:103AC000EAFF020EE926000EEA22EECF14F0EFCF55
:103AD00015F014500F01421902E11550431903E18A
:103AE000010EDFCFDBFF4FD00DD042CF14F043CF1C
:103AF00015F0020EDB50141803E1030EDB5015180D
:103B000001E041D0C7EC00F0FD0EDBCFE9FFFE0E77
:103B1000DBCFEAFF020EE926000EEA22EECF14F018
:103B2000EFCF15F00F011251141802E113511518BF
:103B30002AE1FD0EDBCFE9FFFE0EDBCFEAFFEECF81
:103B400016F0EFCF17F00F011051161802E11151C6
:103B5000171819E1FB0EDBCFE9FFFC0EDBCFEAFF04
:103B6000EE500F0118190CE1EE500F01191908E180
:103B7000EE500F011A1904E1EE500F011B1900E17C
:103B800002E1010E45D2DF2A7ED7010EDB50FE088E
:103B900043E0010EDBCFE6FF75EC00F0E552C7EC29
:103BA00000F0010EDB50FE0837E0020EDBCF42FFD3
:103BB000030EDBCF43FF0A0EE66EE66AFB0EDBCF99
:103BC000E6FFFC0EDBCFE6FF180EE66E0F0EE66E8C
:103BD000E6EC67F0146E060EE15E1450FD0EDBCFCE
:103BE000E9FFFE0EDBCFEAFFEECF10FFEDCF11FFB6
:103BF000FD0EDBCFE9FFFE0EDBCFEAFF020EE9266A
:103C0000000EEA22EECF12FFEDCF13FF29CF0EFFF9
:103C10002ACF0FFF010EFCD1FD0EDBCFE9FFFE0E18
:103C2000DBCFEAFF0D0EE926000EEA22EF50020B71
:103C300002E1000EEDD10301FC51FD1102E0000E86
:103C4000E7D1040EDB6A050EDB6A040EDBCF14F04D
:103C5000050EDBCF15F0030E145C000E155801E3C2
:103C6000D8D0040EDBCFE9FF050EDBCFEAFF140E40
:103C7000EA02F3CFEAFF140EE902F3CFE9FFF450B2
:103C8000EA26C40EE926030EEA22100EE926000EEB
:103C9000EA22EE50ED1001E1BCD0040EDBCFE9FFCB
:103CA000050EDBCFEAFF140EEA02F3CFEAFF140E93
:103CB000E902F3CFE9FFF450EA26C40EE926030E29
:103CC000EA22100EE926000EEA22EECF14F0EFCF22
:103CD00015F0FD0EDBCFE9FFFE0EDBCFEAFF020E93
:103CE000E926000EEA22EECF16F0EFCF17F01650BD
:103CF000141802E11750151801E085D0040EDBCF2F
:103D0000E9FF050EDBCFEAFF140EEA02F3CFEAFF6C
:103D1000140EE902F3CFE9FFF450EA26C40EE926B7
:103D2000030EEA220A0EE926000EEA22EECF14F074
:103D3000EFCF15F0FD0EDBCFE9FFFE0EDBCFEAFF84
:103D4000EECF16F0EFCF17F01650141802E117500F
:103D5000151801E058D0FB0EDBCFE9FFFC0EDBCFDE
:103D6000EAFFEECF14F0EECF15F0EECF16F0EFCF66
:103D700017F0040EDBCFE9FF050EDBCFEAFF140ED0
:103D8000EA02F3CFEAFF140EE902F3CFE9FFF450A1
:103D9000EA26C40EE926030EEA22EE5000011418AA
:103DA0000CE1EE500001151808E1EE500001161864
:103DB00004E1EE500001171800E101E024D006EC08
:103DC00069F006C014F007C015F0040EDBCFE9FF60
:103DD000050EDBCFEAFF140EEA02F3CFEAFF140E62
:103DE000E902F3CFE9FFF450EA26C40EE926030EF8
:103DF000EA22120EE926000EEA2214C0EEFF15C0D8
:103E0000EDFF000E05D1040EDB2A050E01E3DB2ACF
:103E10001CD7DF6ADF50146E156A090E145C000EA1
:103E2000155801E3F3D0DFCFE6FF75EC00F0E55263
:103E30000F0140A7E9D0C7EC00F0FD0EDBCFE9FF92
:103E4000FE0EDBCFEAFF020EE926000EEA22EECFDD
:103E500014F0EFCF15F014500F01121902E11550B4
:103E6000131901E0D1D00A0EE66EE66AFB0EDBCF35
:103E7000E6FFFC0EDBCFE6FF040EDBCFE9FF050E0D
:103E8000DBCFEAFF140EEA02F3CFEAFF140EE902D9
:103E9000F3CFE9FFF450EA26C40EE926030EEA2226
:103EA000E9CF14F0EACF15F014C0E6FF15C0E6FF25
:103EB000E6EC67F0166E060EE15E1650FD0EDBCFE7
:103EC000E9FFFE0EDBCFEAFFEECF14F0EFCF15F0E7
:103ED000040EDBCFE9FF050EDBCFEAFF140EEA028A
:103EE000F3CFEAFF140EE902F3CFE9FFF450EA261C
:103EF000C40EE926030EEA220A0EE926000EEA2283
:103F000014C0EEFF15C0EDFFFD0EDBCFE9FFFE0E86
:103F1000DBCFEAFF040EE926000EEA22EECF14F012
:103F2000EECF15F0EECF16F0EFCF17F0040EDBCF8B
:103F3000E9FF050EDBCFEAFF140EEA02F3CFEAFF3A
:103F4000140EE902F3CFE9FFF450EA26C40EE92685
:103F5000030EEA220C0EE926000EEA2214C0EEFF40
:103F600015C0EEFF16C0EEFF17C0EEFFFD0EDBCF53
:103F7000E9FFFE0EDBCFEAFF020EE926000EEA2281
:103F8000EECF14F0EFCF15F0040EDBCFE9FF050EF6
:103F9000DBCFEAFF140EEA02F3CFEAFF140EE902C8
:103FA000F3CFE9FFF450EA26C40EE926030EEA2215
:103FB000100EE926000EEA2214C0EEFF15C0EDFF38
:103FC00006EC69F006C014F007C015F0040EDBCF54
:103FD000E9FF050EDBCFEAFF140EEA02F3CFEAFF9A
:103FE000140EE902F3CFE9FFF450EA26C40EE926E5
:103FF000030EEA22120EE926000EEA2214C0EEFF9A
:1040000015C0EDFF000E04D0DF2A04D7000E00D04B
:10401000146E060EE15C02E2E16AE552E16E1450B4
:10402000E552E7CFD9FF1200D9CFE6FFE1CFD9FFA4
:10403000FD0EDBCFE9FFFE0EDBCFEAFFEECFE6FFA2
:10404000EFCFE6FFA8EC4EF0E552E552F3CF14F0C7
:10405000F4CF15F0FD0EDBCFE9FFFE0EDBCFEAFF5C
:1040600014C0EEFF15C0EDFFFD0EDBCFE9FFFE0E25
:10407000DBCFEAFF020EE926000EEA22EECFE6FFD2
:10408000EFCFE6FFA8EC4EF0E552E552F3CF14F087
:10409000F4CF15F0FD0EDBCFE9FFFE0EDBCFEAFF1C
:1040A000020EE926000EEA2214C0EEFF15C0EDFF55
:1040B000FD0EDBCFE9FFFE0EDBCFEAFF040EE926A3
:1040C000000EEA22EECFE6FFEECFE6FFEECFE6FFF0
:1040D000EFCFE6FFD2EC4EF0E552E552E552E55265
:1040E00006C014F007C015F008C016F009C017F09C
:1040F000FD0EDBCFE9FFFE0EDBCFEAFF040EE92663
:10410000000EEA2214C0EEFF15C0EEFF16C0EEFF4F
:1041100017C0EEFFFD0EDBCFE9FFFE0EDBCFEAFF9F
:10412000080EE926000EEA22EECFE6FFEECFE6FF0C
:10413000EECFE6FFEFCFE6FFD2EC4EF0E552E552D0
:10414000E552E55206C014F007C015F008C016F09D
:1041500009C017F0FD0EDBCFE9FFFE0EDBCFEAFF53
:10416000080EE926000EEA2214C0EEFF15C0EEFF8D
:1041700016C0EEFF17C0EEFFFD0EDBCFE9FFFE0E0F
:10418000DBCFEAFF0E0EE926000EEA22EECFE6FFB5
:10419000EFCFE6FFA8EC4EF0E552E552F3CF14F076
:1041A000F4CF15F0FD0EDBCFE9FFFE0EDBCFEAFF0B
:1041B0000E0EE926000EEA2214C0EEFF15C0EDFF38
:1041C000FD0EDBCFE9FFFE0EDBCFEAFF100EE92686
:1041D000000EEA22EECFE6FFEFCFE6FFA8EC4EF0AE
:1041E000E552E552F3CF14F0F4CF15F0FD0EDBCF1E
:1041F000E9FFFE0EDBCFEAFF100EE926000EEA22F1
:1042000014C0EEFF15C0EDFFFD0EDBCFE9FFFE0E83
:10421000DBCFEAFF120EE926000EEA22EECFE6FF20
:10422000EFCFE6FFA8EC4EF0E552E552F3CF14F0E5
:10423000F4CF15F0FD0EDBCFE9FFFE0EDBCFEAFF7A
:10424000120EE926000EEA2214C0EEFF15C0EDFFA3
:10425000E552E7CFD9FF1200C7EC00F012CF42FFC2
:1042600013CF43FF29CF2FFF2ACF30FF29CF31FFB4
:104270002ACF32FF2BCF33FF2CCF34FF2BCF35FF8C
:104280002CCF36FF0F010F014051080B02E0040E46
:1042900001D00D0E0F013F6F0F01409140934095EB
:1042A0000F0140990F01409B0F01409D0F01409F5E
:1042B0000F0141910F0141930F0141950F0141976A
:1042C0000F0141890F0124910F0124930F012497BD
:1042D0000F01249929CF0EFF2ACF0FFF33EC49F0AD
:1042E000F3CF06FFF4CF07FF33EC49F0F3CF08FF1D
:1042F000F4CF09FF0F0122692369010E0F01146F2A
:10430000156B1200D9CFE6FFE1CFD9FF040EE126ED
:104310000C0EE66EE66A78EC60F0E552E5523FEC92
:1043200057F0DF6EF00EDF14E840E8403F0B146EEC
:10433000156A140E145E000E155A1450DF6EDF500D
:1043400005E1180EF36E020EF46E8FD0070EE66EC6
:10435000E66A000EE66EE66A42EC57F0E552E55278
:10436000E552E552DF50DF06000901E179D03FEC6C
:1043700057F0E76E010EE7CFDBFF010EDB5001E1E6
:104380006FD0010EDB0401E1EDD7010EDB50020816
:1043900047E1030EDF5C01E263D0020EDB6A030E2D
:1043A000DB6A3FEC57F0E76E010EE7CFDBFF010E53
:1043B000DB5004080CE13FEC57F0E76E030EE7CF4B
:1043C000DBFF3FEC57F0E76E020EE7CFDBFF020E9C
:1043D000DBCF14F0030EDBCF15F0180E145C020EC9
:1043E000155801E23DD0D950020FE96EDACFEAFF4D
:1043F000B40ED880EE54050EED5406E2B40EF36E02
:10440000050EF46E32D00BD0020EDBCF14F0030E8B
:10441000DBCF15F014C0F3FF15C0F4FF26D01FD07A
:10442000020EDF5C01E21CD03FEC57F0E76E010E9C
:10443000E7CFDBFF010EDB50DF5C01E211D0010EA4
:10444000DBCFE6FFE66A000EE66EE66A42EC57F066
:10445000E552E552E552E552010EDB50DF5E82D7B0
:10446000180EF36E020EF46E00D0040EE15C02E250
:10447000E16AE552E16EE552E7CFD9FF1200D9CFEC
:10448000E6FFE1CFD9FF1C0EE126FD0EDBCFE9FFF1
:10449000FE0EDBCFEAFF0D0EE926000EEA220E0E1D
:1044A000EFCFDBFFFD0EDBCFE9FFFE0EDBCFEAFF38
:1044B000080EE926000EEA220F0EEECFDBFF100EEB
:1044C000EECFDBFF110EEECFDBFF120EEECFDBFFE8
:1044D000FD0EDBCFE9FFFE0EDBCFEAFF040EE9267F
:1044E000000EEA22130EEECFDBFF140EEECFDBFF41
:1044F000150EEECFDBFF160EEECFDBFF0F01409166
:10450000409340950F0140B916D0DFEC68F006C02B
:1045100037FF07C038FF08C039FF09C03AFF740EE3
:104520000F013727350E0F013823060E0F013923EF
:10453000000E0F013A230F013F51050A50E0010A16
:1045400001E0FAD00E0EDBA403D086DE8BEF2DF057
:104550000E0EDBA816D00F0EDBCF06FF100EDBCF42
:1045600007FF110EDBCF08FF120EDBCF09FFE66A53
:10457000040EE66EBDEC18F0E552E5526DDE8BEFF1
:104580002DF00E0EDBA228D0130EDBCF0AFF140E87
:10459000DBCF0BFF150EDBCF0CFF160EDBCF0DFFB5
:1045A0000F010A2B000E0F010B23000E0F010C232D
:1045B000000E0F010D23A6DEF3CF25FFF4CF26FF5B
:1045C000010EE66E120EE66EBDEC18F0E552E552F5
:1045D0000F01060E3F6F01D03FDE8BEF2DF00E0E68
:1045E000DBA402D08BEF2DF00E0EDBA844D0D95007
:1045F0000F0FE96EDACFEAFFEE500F0106190CE15A
:10460000EE500F01071908E1EE500F01081904E1FF
:10461000EE500F01091900E12EE0130E06CFDBFF6B
:10462000140E07CFDBFF150E08CFDBFF160E09CFE8
:10463000DBFF0F0EDBCF06FF100EDBCF07FF110EE7
:10464000DBCF08FF120EDBCF09FF010EE66E040E72
:10465000E66EBDEC18F0E552E552130EDBCF06FF17
:10466000140EDBCF07FF150EDBCF08FF160EDBCFD6
:1046700009FF8BEF2DF00E0EDBA25CD0130EDBCF0B
:104680000AFF140EDBCF0BFF150EDBCF0CFF160E4F
:10469000DBCF0DFF0F010A2B000E0F010B23000EC5
:1046A0000F010C23000E0F010D23FD0EDBCFE9FFE0
:1046B000FE0EDBCFEAFF0E0EE926000EEA22EECF59
:1046C00014FFEDCF15FF1EDEF3CF25FFF4CF26FF3D
:1046D0000E0EDBA824D0010EE66E100EE66EBDECC9
:1046E00018F0E552E5520F01070E3F6FDFEC68F05E
:1046F00006C037FF07C038FF08C039FF09C03AFFBE
:10470000740E0F013727350E0F013823060E0F01E7
:104710003923000E0F013A230F0140990BD0010EEF
:10472000E66E120EE66EBDEC18F0E552E5520F0192
:10473000060E3F6F8BEF2DF000D0FB0EDBCF08F0A5
:10474000FC0EDBCF09F0170E08C0DBFF180E09C006
:10475000DBFF0E0EDBA005D0170EDB2A180E01E3DF
:10476000DB2A0E0EDBA205D0170EDB2A180E01E3A2
:10477000DB2A0F0135510F01335D0F0136510F0157
:1047800034591FE30F012B510F012D5D166E2E5171
:104790000F012C55176E0F0135510F01335D186E47
:1047A00034510F013655196E1850165C146E19509D
:1047B0001758156E0C0E14C0DBFF0D0E15C0DBFF75
:1047C00012D00F0133510F01355D146E36510F01B8
:1047D0003455156E1406000E155A0C0E14C0DBFF6E
:1047E0000D0E15C0DBFFD950130FE96EDACFEAFFCB
:1047F0000F010A51EE5C146E0F010B51EE58156E4D
:104800000F010C51EE58166E0F010D51EE58176E38
:10481000060E14C0DBFF070E15C0DBFF080E16C026
:10482000DBFF090E17C0DBFF060EDBCF08F0070E1B
:10483000DBCF09F00A0E08C0DBFF0B0E09C0DBFF5F
:10484000190EDB6AD950170FE96EDACFEAFFEE5086
:10485000ED1001E1C3D0D9500C0FE96EDACFEAFFB9
:10486000EE50ED1001E1B9D0D950060FE96EDACF64
:10487000EAFFD890030EEB50000A08E6000EEE5C4B
:10488000000EEE58000EEE58000EEE581CE30C0E13
:10489000DBCF14F00D0EDBCF15F0166A176AD95076
:1048A000060FE96EDACFEAFF1450EE5C1550EE58B1
:1048B0001650EE581750EE5806E2010EF36E190E20
:1048C000F3CFDBFF53D0170EDBCF14F0180EDBCF86
:1048D00015F0166A176AD950060FE96EDACFEAFFAB
:1048E000EE501426EE501522EE501622EE501722EE
:1048F0001734000E171809E6D880000E1454000E65
:104900001554000E1654000E175430E20C0EDBCF77
:104910001CF00D0EDBCF1DF0170EDB501C5C186E6B
:10492000180EDB501D58196E1A6A1B6A19AE02D098
:104930001A681B68D950060FE96EDACFEAFF030E3A
:10494000EBCFF3FF1B50F318E8AE02D0F33408D0DE
:10495000EE50185CEE501958EE501A58EE501B5895
:1049600005E3010EF36E190EF3CFDBFF0C0EDBCF68
:1049700014F00D0EDBCF15F0166A176AD950060F2A
:10498000E96EDACFEAFF030EEB501718E8AE02D05B
:10499000173408D01450EE5C1550EE581650EE58EF
:1049A0001750EE581AE2170EDBCF1AF0180EDBCFB5
:1049B0001BF00A0EDB501A24186E0B0EDB501B2066
:1049C000196E193404E218500008000E195405E25B
:1049D000010EF36E190EF3CFDBFF45D0060EDBCFD1
:1049E00014F0070EDBCF15F0080EDBCF16F0090E22
:1049F000DBCF17F0145015101610171006E1010E3A
:104A0000F36E190EF3CFDBFF2ED0D950060FE96EEF
:104A1000DACFEAFFD890030EEB50000A08E6000E4A
:104A2000EE5C000EEE58000EEE58000EEE581BE342
:104A30000C0EDBCF14F00D0EDBCF15F0166A176AE3
:104A4000D950060FE96EDACFEAFF1450EE5C15502C
:104A5000EE581650EE581750EE5805E2010EF36E60
:104A6000190EF3CFDBFF190EDB500DE10E0EDBB498
:104A700008D0010EE66E100EE66EBDEC18F0E552A1
:104A8000E5528BEF2DF00E0EDB50060B04E02CEC04
:104A900021F08BEF2DF00E0EDBB802D08BEF2DF056
:104AA0000F013F510C0A01E1B1D30B0A52E00F0A8A
:104AB00050E0010A4EE0020A4CE0010A4AE00C0A0A
:104AC00001E0C9D3D9500F0FE96EDACFEAFFEE50FB
:104AD0000F0106190CE1EE500F01071908E1EE5025
:104AE0000F01081904E1EE500F01091900E12EE051
:104AF000130E06CFDBFF140E07CFDBFF150E08CF1A
:104B0000DBFF160E09CFDBFF0F0EDBCF06FF100E0B
:104B1000DBCF07FF110EDBCF08FF120EDBCF09FF43
:104B2000010EE66E040EE66EBDEC18F0E552E5529D
:104B3000130EDBCF06FF140EDBCF07FF150EDBCF06
:104B400008FF160EDBCF09FF8BEF2DF00F01070ECC
:104B50003F6F0F010E510F012F5D146E30510F0189
:104B60000F55156E040E14C0DBFF050E15C0DBFFDC
:104B7000040EDBCF14F0050EDBCF15F00001800E24
:104B8000151412E00F0129510F012B5D146E2C51E9
:104B90000F012A55156ED950040FE96EDACFEAFFDE
:104BA0001450EE261550ED22040EDBCF14F0050E46
:104BB000DBCF15F0166A176A060EE96E0F0EEA6E65
:104BC000EE501426EE501522EE501622EE5017220B
:104BD00014C0DFFF010E15C0DBFF020E16C0DBFFA5
:104BE000030E17C0DBFF0F0EDBCF18F0100EDBCF6C
:104BF00019F0110EDBCF1AF0120EDBCF1BF0D9CF5C
:104C0000E9FFDACFEAFFEE50185C146EEE50195847
:104C1000156EEE501A58166EEE501B58176E14C0D3
:104C2000DFFF010E15C0DBFF020E16C0DBFF030E17
:104C300017C0DBFFDECF07F0DECF08F0DECF09F0D4
:104C4000DDCF0AF0DD52DD520A34000E0A1809E603
:104C5000D880000E0754000E0854000E0954000EB0
:104C60000A5426E20F010F012451010B0DE0D9CFA8
:104C7000E9FFDACFEAFF010EEE1805E1EE5003E19D
:104C8000EE5001E1EE500AE0E66A100EE66EBDEC71
:104C900018F0E552E5528BEF2DF00AD0D9500F0FE6
:104CA000E96EDACFEAFFEE06000EEE5AEE5AEE5A41
:104CB0000F0131510F010E5D186E0F510F0132556A
:104CC000196E1A6A1B6A19AE02D01A681B6818504E
:104CD0000F01065D146E19500F010759156E1A5019
:104CE0000F010859166E1B500F010959176E14C099
:104CF000DFFF010E15C0DBFF020E16C0DBFF030E47
:104D000017C0DBFF0F0131510F010E5D0F01325152
:104D10000F010F5917E20F0129510F012B5D146E7E
:104D20002C510F012A55156E166A176AD9CFE9FF63
:104D3000DACFEAFF1450EE5E1550EE5A1650EE5AD6
:104D40001750EE5A0F0EDBCF18F0100EDBCF19F014
:104D5000110EDBCF1AF0120EDBCF1BF0D9CFE9FF1B
:104D6000DACFEAFFEE50185C146EEE501958156E4B
:104D7000EE501A58166EEE501B58176E14C0DFFF17
:104D8000010E15C0DBFF020E16C0DBFF030E17C0BD
:104D9000DBFFDECF07F0DECF08F0DECF09F0DDCF9E
:104DA0000AF0DD52DD520A34000E0A1809E6D880F6
:104DB000000E0754000E0854000E0954000E0A5449
:104DC00001E3CED00F0129510F012B5D146E2C5140
:104DD0000F012A55156E166A176AD9CFE9FFDACF87
:104DE000EAFFEE50145CEE501558EE501658EE5097
:104DF000175801E2B5D00F0124970F0124990F0134
:104E00004191040E31CFDBFF050E32CFDBFFD9CF4E
:104E1000E9FFDACFEAFFEE500F013127EE500F0124
:104E20003223040EDBCF14F0050EDBCF15F00F019B
:104E300014500E5D15500F5922E30F0131510F012F
:104E40000E5D0F0132510F010F5918E20F010E5183
:104E50000F01315D146E32510F010F55156E0001B7
:104E600014500F010627000115500F010723000EF3
:104E70000823092331CF0EFF32CF0FFF40D00F019F
:104E800029510F012B5D166E2C510F012A55176EFB
:104E90000F010F010E511624146E0F010F010F5157
:104EA0001720156E040E14C0DBFF050E15C0DBFFC6
:104EB000040EDBCF14F0050EDBCF15F00F013151DE
:104EC000145C325115581BE2040EDB500F01315DAA
:104ED0000001146E050EDB500F0132590001156EF2
:104EE000000114500F010627000115500F01072380
:104EF000000E0823092331CF0EFF32CF0FFF0F0121
:104F00002B510F01315D0F012C510F0132590FE36D
:104F10000F0129510F012B5D146E2C510F012A55E1
:104F2000156E14500F01315F15500F01325B0F01E8
:104F30002B510F010E5D0F012C510F010F590FE383
:104F40000F0129510F012B5D146E2C510F012A55B1
:104F5000156E14500F010E5F15500F010F5B59D0E5
:104F60000F010E510F01311904E10F010F510F0113
:104F700032194FE00F0124A74AD00F0124A945D0D0
:104F80000F0131510F010E5D146E0F510F0132559B
:104F9000156E166A176A15AE02D016681768145097
:104FA0000F01065F15500F01075B16500F01085BDC
:104FB00017500F01095B0F0131510F010E5D0F01F9
:104FC00032510F010F591BE20F0129510F012B5DC7
:104FD000146E2C510F012A55156E166A176A15AEFC
:104FE00002D01668176814500F01065F15500F01A4
:104FF000075B16500F01085B17500F01095B31CF9B
:105000000EFF32CF0FFF0F0141850F0124890F01E1
:1050100024870F012F510F01311904E10F01305185
:105020000F0132193BE10F0141B719D0DFEC68F0F5
:1050300006C037FF07C038FF08C039FF09C03AFF74
:10504000740E0F013727350E0F013823060E0F019E
:105050003923000E0F013A230F0140991FD0D95078
:105060000F0FE96EDACFEAFF0F010651EE180CE1DF
:105070000F010751EE1808E10F010851EE1804E185
:105080000F010951EE1800E109E10F010F01245150
:10509000010B04E00F0140990F014197D9500F0F08
:1050A000E96EDACFEAFFEE500F01065D166EEE50A4
:1050B0000F010759176EEE500F010859186EEE5088
:1050C0000F010959196EFD0EDBCFE9FFFE0EDBCF94
:1050D000EAFF0E0EE926000EEA221650EE5C146E70
:1050E0001750EE58156E1A0E14C0DBFF1B0E15C0BC
:1050F000DBFF0F01145115110AE1D9501A0FE96EA7
:10510000DACFEAFFEE50ED1002E00F0141831A0EF4
:10511000DBCF14FF1B0EDBCF15FF080E0F013F5D29
:1051200037E1D9500F0FE96EDACFEAFF0F010651D0
:10513000EE180CE10F010751EE1808E10F010851BC
:10514000EE1804E10F010951EE1800E120E10F0112
:105150000F012451010B1BE0DFEC68F006C037FFA4
:1051600007C038FF08C039FF09C03AFFBA0E0F0167
:1051700037271A0E0F013823030E0F013923000EB3
:105180000F013A230F0140890F01090E3F6F3DD0F7
:10519000090E0F013F5D1BE10E0EDBB017D00F0EA5
:1051A000DBCF06FF100EDBCF07FF110EDBCF08FFB2
:1051B000120EDBCF09FFE66A140EE66EBDEC18F0A6
:1051C000E552E5522CEC21F08BEF2DF01ED00A0EAB
:1051D0000F013F5D1AE1D9500F0FE96EDACFEAFFF8
:1051E0000F010651EE180CE10F010751EE1808E10E
:1051F0000F010851EE1804E10F010951EE1800E10A
:1052000002E12CEC21F08BEF2DF026D006CF14F02C
:1052100007CF15F008CF16F009CF17F0142A000EAB
:105220001522000E1622000E1722D9500F0FE96E1C
:10523000DACFEAFF1450EE1809E11550EE1806E136
:105240001650EE1803E11750EE1800E102E12CECC5
:1052500021F08BEF2DF000D00E0EDBAA02D08BEFE9
:105260002DF00B0E0F013F5D02E18BEF2DF00A0ECA
:105270000F013F5D02E18BEF2DF00C0E0F013F5D42
:1052800002E18BEF2DF0D950FB0FE96EFF0EDA2013
:10529000EA6EEE50ED1001E174D30A0EDBCF14F08C
:1052A0000B0EDBCF15F0153404E214500008000E8D
:1052B000155401E26FD1FD0EDBCFE9FFFE0EDBCF0F
:1052C000EAFF0C0EE926000EEA22EF50F00BE8424E
:1052D000E842E842E842040DF350166E176A0A0EDF
:1052E000DB50165C146E0B0EDB501758156E14C095
:1052F000E6FF15C0E6FF78EC60F0E552E5520A0ED5
:10530000DBCF14F00B0EDBCF15F0D950FB0FE96E9D
:10531000FF0EDA20EA6E1450EE261550ED22FB0E39
:10532000DBCF14F0FC0EDBCF15F00C0EDBCF16F04C
:105330000D0EDBCF17F01450165C155017580CE209
:105340000C0EDBCF08F00D0EDBCF09F0FB0E08C012
:10535000DBFFFC0E09C0DBFFFB0EDBCF14F0FC0E05
:10536000DBCF15F0000114500F010A270001155082
:105370000F010B23000E0C230D23FB0EDB500F013E
:1053800033250001146EFC0EDB500F0134210001A7
:10539000156E0F0114502D5D15502E5964E20F014A
:1053A00033510F012D5D146E2E510F013455156EC2
:1053B000010E1426000E1522040E14C0DBFF050E8C
:1053C00015C0DBFF040EDBCFE6FF050EDBCFE6FFEB
:1053D000E66AE668E66844CFE6FF33CFE6FF34CFFF
:1053E000E6FF4EEC2FF0146E080EE15E1450FB0E3B
:1053F000DBCF16F0FC0EDBCF17F0040EDB50165C93
:10540000146E050EDB501758156E14C0E6FF15C05C
:10541000E6FFE66AE668E66844CFE6FF2BCFE6FFE4
:105420002CCFE6FF4EEC2FF0186E080EE15E185000
:10543000FB0EDBCF16F0FC0EDBCF17F0040EDB50BB
:10544000165C146E050EDB501758156E0F010F0118
:105450002B5114240F01336F0F010F012C51152014
:105460000F01346F21D0FB0EDBCFE6FFFC0EDBCF4C
:10547000E6FFE66AE668E66844CFE6FF33CFE6FF7C
:1054800034CFE6FF4EEC2FF0146E080EE15E1450A0
:10549000FB0EDBCF08F0FC0EDBCF09F008500F014C
:1054A000332709500F0134230F01221D01E1231D71
:1054B00070E0FB0EDBCF08F0FC0EDBCF09F00850EC
:1054C0000F01225F09500F01235B0F010F011651DD
:1054D0000F012225146E0F010F0117510F01232117
:1054E000156E040E14C0DBFF050E15C0DBFF040EA5
:1054F000DBCF14F0050EDBCF15F00001800E151484
:1055000004E00F012269236944D00F01233504E22E
:1055100022510008000E23553CE3040EDBCF14F0AB
:10552000050EDBCF15F0000114500F010A27000112
:1055300015500F010B23000E0C230D23040EDBCF9F
:1055400008F0050EDBCF09F008500F013327095092
:105550000F0134230F0133510F012D5D0F01345121
:105560000F012E5913E20F012B510F012D5D146E07
:105570002E510F012C55156E010E1426000E15220A
:1055800014500F01335F15500F01345B0F01226976
:105590002369F7D10A0EDBCF14F00B0EDBCF15F029
:1055A000153404E214500008000E155401E3E9D14B
:1055B0000A0EDBCF16F00B0EDBCF17F0FB0EDB5025
:1055C0001624146EFC0EDB501720156E0C0EDBCF6C
:1055D00018F00D0EDBCF19F01450185C1550195847
:1055E00014E20C0EDBCF16F00D0EDBCF17F00A0E17
:1055F000DB50165C146E0B0EDB501758156EFB0E4D
:1056000014C0DBFFFC0E15C0DBFFFD0EDBCFE9FF96
:10561000FE0EDBCFEAFF0C0EE926000EEA22EF5069
:10562000F00BE842E842E842E842040DF350E66E2F
:10563000E66A78EC60F0E552E5520A0EDB500F01A5
:1056400033250001166E0B0EDB500F0134210001D3
:10565000176EFB0EDB501624146EFC0EDB50172069
:10566000156E0F0114502D5D15502E5901E39AD07F
:105670000F0133510F012D5D166E2E510F01345560
:10568000176E010E1626000E17220A0EDB50165C4E
:10569000146E0B0EDB501758156E040E14C0DBFF92
:1056A000050E15C0DBFF040EDBCF14F0050EDBCFBB
:1056B00015F00001800E151441E1040EDBCFE6FF6A
:1056C000050EDBCFE6FFE66AE668E66844CFE6FF54
:1056D0000A0EDB500F0133250001146E0B0EDB5058
:1056E0000F0134210001156E14C0E6FF15C0E6FF5E
:1056F000D5DB166E080EE15E1650FB0EDBCF16F002
:10570000FC0EDBCF17F0040EDB50165C146E050E9A
:10571000DB501758156E14C0E6FF15C0E6FFE66AA9
:10572000E668E66844CFE6FF2BCFE6FF2CCFE6FF26
:10573000B5DB186E080EE15E185033D0FB0EDBCFE0
:10574000E6FFFC0EDBCFE6FFE66AE668E66844CFDC
:10575000E6FF0A0EDB500F0133250001166E0B0E1B
:10576000DB500F0134210001176E0F012B510F0187
:105770002D5D186E2E510F012C55196E010E182635
:10578000000E19221850165C146E19501758156E19
:1057900014C0E6FF15C0E6FF81DB1A6E080EE15E5D
:1057A0001A5020D0FB0EDBCFE6FFFC0EDBCFE6FF6E
:1057B000E66AE668E66844CFE6FF0A0EDB500F01B2
:1057C00033250001146E0B0EDB500F013421000154
:1057D000156E14C0E6FF15C0E6FF60DB166E080EFE
:1057E000E15E16500F01221D01E1231D0DE10A0E9D
:1057F000DBCF22FF0B0EDBCF23FFFB0EDBCF16FF31
:10580000FC0EDBCF17FFBDD00A0EDBCF14F00B0E62
:10581000DBCF15F00F012251145C2351155859E2CA
:10582000FB0EDBCF16F0FC0EDBCF17F00A0EDB50C1
:105830001624146E0B0EDB501720156E0F010F018E
:1058400022510F011625186E0F010F0123510F0170
:105850001721196E1450185C1550195814E3FB0EDB
:10586000DBCF1CF0FC0EDBCF1DF00A0EDB501C243E
:105870001A6E0B0EDB501D201B6E0F0122511A5C9D
:1058800023511B5807E2FB0EDBCF16FFFC0EDBCFCC
:1058900017FF18D00F010F0122510F011625146EAA
:1058A0000F010F0123510F011721156E0A0EDB5056
:1058B0000001145C0F01166F0B0EDB500001155830
:1058C0000F01176F0A0EDBCF22FF0B0EDBCF23FF7A
:1058D00058D0FB0EDBCF16F0FC0EDBCF17F00A0E14
:1058E000DB501624146E0B0EDB501720156E0F01C3
:1058F0000F0122510F011625186E0F010F012351C0
:105900000F011721196E1450185C1550195839E2FF
:105910000A0EDBCF14F00B0EDBCF15F00F010F01D9
:1059200022510F011625166E0F010F0123510F0191
:105930001721176E1450165C1550175822E3FB0EF2
:10594000DBCF1AF0FC0EDBCF1BF00A0EDB501A2463
:10595000186E0B0EDB501B20196E0F012251185CC4
:10596000166E23511958176E0F011651165C146EDE
:1059700017511758156E14500F01162715500F01A7
:105980001723D950170FE96EDACFEAFFEE50ED106A
:1059900029E0070E0F013F5D04E033CF35FF34CF20
:1059A00036FF0F0140AF0BD0010EE66E100EE66E13
:1059B000BDEC18F0E552E552C7EC00F013D00F0132
:1059C000408F0F0140BD0ED00F01408D06EC69F0F5
:1059D00006C03DFF07C03EFF0F0E0F013D27000E22
:1059E0000F013E230E0EDBA096D00ACF14F00BCF92
:1059F00015F00CCF16F00DCF17F0142A000E15225B
:105A0000000E1622000E1722170EDBCF18F0180E0C
:105A1000DBCF19F01A6A1B6AD950130FE96EDACF7F
:105A2000EAFFEE501826EE501922EE501A22EE50E0
:105A30001B221450181809E11550191806E11650C8
:105A40001A1803E117501B1800E165E10F010A2B3A
:105A5000000E0B230C230D230F013F51090A48E0D0
:105A6000010A21E00F0A0FE0010A01E04BD00F010B
:105A70000C0E3F6F010EE66E110EE66EBDEC18F0D7
:105A8000E552E55248D00F010B0E3F6F06EC69F06E
:105A900006C03DFF07C03EFF1F0E0F013D27000E51
:105AA0000F013E2330D0D9500F0FE96EDACFEAFF55
:105AB0000F010651EE180CE10F010751EE1808E135
