:020000040000FA
:06000000DEEF1AF0120011
:020006001200E6
:08000800F2A402D0CFEF16F0C4
:100010009EA002D038EF17F09EAA02D050EF15F044
:080020001200D08EF28E1200D6
:0800280008008E370000FD0105
:10003000000001000000323700008C0100005C006D
:10004000000030370000F8010000020000002F37E8
:100050000000FC01000001000000243700008000C7
:1000600000000B00000014370000E8010000100041
:10007000000088360000000100008C0000000A36F5
:0A0080000000000200007E000000F6
:06008A00D9CFE6FFE1CF33
:10009000D9FFE652FE0EDBCFE6FF010EF36EFD0E3A
:1000A000DB5004E0D890F336E806FCE1F350E5526B
:1000B000E71402E0010E01D0000EDF6EDF5000D029
:1000C000E552E552E7CFD9FF1200D9CFE6FFE1CFE5
:1000D000D9FF010EF36EFC0EDB5004E0D890F3362E
:1000E000E806FCE1F350106EFD0EDBCFE9FFFE0EDB
:1000F000DBCFEAFF1050EF12E552E7CFD9FF120035
:10010000D9CFE6FFE1CFD9FF010EF36EFC0EDB5035
:1001100004E0D890F336E806FCE1F350E81C106EDA
:10012000FD0EDBCFE9FFFE0EDBCFEAFF1050EF162E
:10013000E552E7CFD9FF1200D9CFE6FFE1CFD9FFD3
:10014000030EE126DF6A010EDF5C01E31ED1DF282A
:10015000E66EDF508B0DF3CFE9FFF4CFEAFF000E20
:10016000E926050EEA22E552E750EF6EDF508B0DCF
:10017000F3CFE9FFF4CFEAFF000EE926050EEA22ED
:10018000EE52EF6ADF508B0DF3CFE9FFF4CFEAFFB9
:10019000000EE926050EEA22030EE926000EEA22E9
:1001A000EE6AED6ADF508B0DF3CFE9FFF4CFEAFF83
:1001B000000EE926050EEA22050EE926000EEA22C7
:1001C000EF6ADF508B0DF3CFE9FFF4CFEAFF000EAB
:1001D000E926050EEA22060EE926000EEA22EF6A5B
:1001E000DF508B0DF3CFE9FFF4CFEAFF000EE926D5
:1001F000050EEA22090EE926000EEA22EF6ADF5018
:100200008B0DF3CFE9FFF4CFEAFF000EE926050ED0
:10021000EA220A0EE926000EEA22EF6ADF508B0D71
:10022000F3CFE9FFF4CFEAFF000EE926050EEA223C
:10023000070EE926000EEA22EF6ADF508B0DF3CF9E
:10024000E9FFF4CFEAFF000EE926050EEA220B0EC5
:10025000E926000EEA22EF6ADF508B0DF3CFE9FFAB
:10026000F4CFEAFF000EE926050EEA220C0EE9267D
:10027000000EEA22EF6ADF508B0DF3CFE9FFF4CFD7
:10028000EAFF000EE926050EEA22080EE926000E16
:10029000EA22EF6ADF508B0DF3CFE9FFF4CFEAFFDC
:1002A000000EE926050EEA22020EE926000EEA22D9
:1002B000EF6ADE522A0EDD6E010EDBCFE6FFE66A44
:1002C000E66ADF508B0DF3CFE9FFF4CFEAFF000EB3
:1002D000E926050EEA22610EE926000EEA22E9CFA0
:1002E00010F0EACF11F010C0E6FF11C0E6FF7BEC82
:1002F00019F0126E050EE15E1250010EDBCFE6FF23
:10030000E66AE66ADF508B0DF3CFE9FFF4CFEAFF30
:10031000000EE926050EEA220D0EE926000EEA225D
:10032000E9CF10F0EACF11F010C0E6FF11C0E6FFF0
:100330007BEC19F0126E050EE15E1250010EDBCF60
:10034000E6FFE66AE66ADF508B0DF3CFE9FFF4CFF4
:10035000EAFF000EE926050EEA220D0EE926000E40
:10036000EA22E9CF10F0EACF11F02A0E1026000E93
:10037000112210C0E6FF11C0E6FF7BEC19F0126EEF
:10038000050EE15E1250DF2ADED6030EE15C02E2CA
:10039000E16AE552E16EE552E7CFD9FF1200D9CF0D
:1003A000E6FFE1CFD9FF070EE126010EF36EFE0E48
:1003B000DBCFF4FFF350F45C18E2FC0EDBCFE9FF77
:1003C000FD0EDBCFEAFFEFCF10F0060E105C0DE262
:1003D000FC0EDBCFE9FFFD0EDBCFEAFF020EE926C4
:1003E000000EEA22EE50ED1002E1000E96D3FE0E52
:1003F000DB508B0DF3CFE9FFF4CFEAFF000EE926C7
:10040000050EEA22EE52E9CF10F0EACF11F0050E08
:1004100010C0DBFF060E11C0DBFFFC0EDBCFE9FFD7
:10042000FD0EDBCFEAFFEECF10F0EECF11F0EECFF6
:1004300012F0EECF13F0EECF14F0EFCF15F0050E63
:10044000DBCFE9FF060EDBCFEAFF10C0EEFF11C0E5
:10045000EEFF12C0EEFF13C0EEFF14C0EEFF15C09A
:10046000EEFFFE0EDB508B0DF3CFE9FFF4CFEAFF7A
:10047000000EE926050EEA22060EE926000EEA2203
:10048000EF50E66EFE0EDB508B0DF3CFE9FFF4CF9D
:10049000EAFF000EE926050EEA22070EE926000E05
:1004A000EA22E552E750EF6E2A0EDF6EDFCFE6FF5D
:1004B000E66AE66AFE0EDB508B0DF3CFE9FFF4CF60
:1004C000EAFF000EE926050EEA22610EE926000E7B
:1004D000EA22E9CF10F0EACF11F010C0E6FF11C018
:1004E000E6FF7BEC19F0126E050EE15E1250DFCFD5
:1004F000E6FFE66AE66AFE0EDB508B0DF3CFE9FFFE
:10050000F4CFEAFF000EE926050EEA220D0EE926D9
:10051000000EEA22E9CF10F0EACF11F010C0E6FF9A
:1005200011C0E6FF7BEC19F0126E050EE15E125071
:10053000DFCFE6FFE66AE66AFE0EDB508B0DF3CFF7
:10054000E9FFF4CFEAFF000EE926050EEA220D0EC0
:10055000E926000EEA22E9CF10F0EACF11F02A0EC8
:100560001026000E112210C0E6FF11C0E6FF7BEC42
:1005700019F0126E050EE15E1250FE0EDB508B0D6F
:10058000F3CFE9FFF4CFEAFF000EE926050EEA22D9
:10059000060EE926000EEA22EF5001E05FD1FE0EC2
:1005A000DB508B0DF3CFE9FFF4CFEAFF000EE92615
:1005B000050EEA22080EE926000EEA22EF6ADF6A3B
:1005C000FE0EDB508B0DF3CFE9FFF4CFEAFF000EF8
:1005D000E926050EEA22020EE926000EEA22EF5075
:1005E000DF5C01E33AD1FE0EDB508B0DF3CFE9FF68
:1005F000F4CFEAFF000EE926050EEA22080EE926EE
:10060000000EEA22EF50EF2A106E116AFE0EDB5048
:100610008B0DF3CFE9FFF4CFEAFF000EE926050EBC
:10062000EA22030EE926000EEA221050EE24E76EBD
:100630001150EE20EA6EE7CFE9FFEF50E00FE76ED2
:10064000040EE7CFDBFF010EDB6A070EF36E010E2F
:10065000DBCFF4FFF350F45C01E3D9D0040EDB50A0
:10066000080DF3CF14F0F4CF15F0E40E1426260E87
:100670001522010EDB500F011424F66E000E15201A
:10068000F76E0800F550E66EFE0EDB508B0DF3CFD3
:10069000E9FFF4CFEAFF000EE926050EEA22610E1B
:1006A000E926000EEA22E9CF12F0EACF13F0010E9C
:1006B000DB50060D1250F324106E1350F420116E0F
:1006C000DF500F011024E96E000E1120EA6EE55292
:1006D000E750EF6EFE0EDB508B0DF3CFE9FFF4CF4A
:1006E000EAFF000EE926050EEA22610EE926000E59
:1006F000EA22E9CF16F0EACF17F0010EDB50060D23
:100700001650F324146E1750F420156EDF500F01AD
:100710001424E96E000E1520EA6EEF50E66EFE0E10
:10072000DB508B0DF3CFE9FFF4CFEAFF000EE92693
:10073000050EEA220D0EE926000EEA22E9CF12F09C
:10074000EACF13F0010EDB50060D1250F324106EA9
:100750001350F420116EDF500F011024E96E000ECB
:100760001120EA6EE552E750EF6EFE0EDB508B0D66
:10077000F3CFE9FFF4CFEAFF000EE926050EEA22E7
:10078000610EE926000EEA22E9CF16F0EACF17F053
:10079000010EDB50060D1650F324146E1750F42092
:1007A000156EDF500F011424E96E000E1520EA6E5D
:1007B000EF50E66EFE0EDB508B0DF3CFE9FFF4CF6A
:1007C000EAFF000EE926050EEA220D0EE926000ECC
:1007D000EA22E9CF12F0EACF13F02A0E1226000E19
:1007E0001322010EDB50060D1250F324106E13502D
:1007F000F420116EDF500F011024E96E000E11205D
:10080000EA6EE552E750EF6E010EDB2A1ED7FE0EB0
:10081000DB508B0DF3CFE9FFF4CFEAFF000EE926A2
:10082000050EEA22080EE926000EEA22EFCF10F0AC
:10083000FE0EDB508B0DF3CFE9FFF4CFEAFF000E85
:10084000E926050EEA22050EE926000EEA22EF50FF
:10085000105C01E302D0DF2AB3D65DD1DF6AFE0E61
:10086000DB508B0DF3CFE9FFF4CFEAFF000EE92652
:10087000050EEA22020EE926000EEA22EF50DF5CA6
:1008800001E349D1FE0EDB508B0DF3CFE9FFF4CF2E
:10089000EAFF000EE926050EEA22080EE926000E00
:1008A000EA22EF50EF2A106E116AFE0EDB508B0D1C
:1008B000F3CFE9FFF4CFEAFF000EE926050EEA22A6
:1008C000030EE926000EEA221050EE24E76E1150C6
:1008D000EE20EA6EE7CFE9FFEF50E00FE76E040E7F
:1008E000E7CFDBFFFE0EDB508B0DF3CFE9FFF4CF3C
:1008F000EAFF000EE926050EEA22080EE926000EA0
:10090000EA22EFCF10F0FE0EDB508B0DF3CFE9FFA4
:10091000F4CFEAFF000EE926050EEA22050EE926CD
:10092000000EEA22EF50105C10E3FE0EDB508B0D40
:10093000F3CFE9FFF4CFEAFF000EE926050EEA2225
:10094000080EE926000EEA22EF6A010EDB6A070EA6
:10095000F36E010EDBCFF4FFF350F45C01E3D9D06A
:10096000040EDB50080DF3CF14F0F4CF15F0E40EB5
:100970001426260E1522010EDB500F011424F66EEC
:10098000000E1520F76E0800F550E66EFE0EDB50E7
:100990008B0DF3CFE9FFF4CFEAFF000EE926050E39
:1009A000EA22610EE926000EEA22E9CF12F0EACF30
:1009B00013F0010EDB50060D1250F324106E13508D
:1009C000F420116EDF500F011024E96E000E11208B
:1009D000EA6EE552E750EF6EFE0EDB508B0DF3CF63
:1009E000E9FFF4CFEAFF000EE926050EEA22610EC8
:1009F000E926000EEA22E9CF16F0EACF17F0010E41
:100A0000DB50060D1650F324146E1750F420156EAB
:100A1000DF500F011424E96E000E1520EA6EEF502E
:100A2000E66EFE0EDB508B0DF3CFE9FFF4CFEAFF4D
:100A3000000EE926050EEA220D0EE926000EEA2236
:100A4000E9CF12F0EACF13F0010EDB50060D125081
:100A5000F324106E1350F420116EDF500F01102498
:100A6000E96E000E1120EA6EE552E750EF6EFE0EC1
:100A7000DB508B0DF3CFE9FFF4CFEAFF000EE92640
:100A8000050EEA22610EE926000EEA22E9CF16F0F1
:100A9000EACF17F0010EDB50060D1650F324146E4A
:100AA0001750F420156EDF500F011424E96E000E6C
:100AB0001520EA6EEF50E66EFE0EDB508B0DF3CF85
:100AC000E9FFF4CFEAFF000EE926050EEA220D0E3B
:100AD000E926000EEA22E9CF12F0EACF13F02A0E3F
:100AE0001226000E1322010EDB50060D1250F324C5
:100AF000106E1350F420116EDF500F011024E96EB8
:100B0000000E1120EA6EE552E750EF6E010EDB2A6F
:100B10001ED7DF2AA4D6010E00D0106E070EE15CAE
:100B200002E2E16AE552E16E1050E552E7CFD9FFEB
:100B30001200D9CFE6FFE1CFD9FFFE0EDB508B0DBF
:100B4000F3CFE9FFF4CFEAFF000EE926050EEA2213
:100B5000060EE926000EEA22FD0EDBCFEFFFFE0EA9
:100B6000DB508B0DF3CFE9FFF4CFEAFF000EE9264F
:100B7000050EEA22070EE926000EEA22FD0EDBCF63
:100B8000EFFFE552E7CFD9FF1200D9CFE6FFE1CF63
:100B9000D9FF020EE126FD0EDB50106E116AFE0E2B
:100BA000DB508B0DF3CFE9FFF4CFEAFF000EE9260F
:100BB000050EEA22030EE926000EEA221050EE246A
:100BC000E76E1150EE20EA6EE7CFE9FFEF50E00F3D
:100BD000E76E010EE7CFDBFFDF6A070EDF5C01E3A4
:100BE000B5D0010EDB50080DF3CF14F0F4CF15F0A3
:100BF000E40E1426260E1522DF500F011424F66E83
:100C0000000E1520F76E0800F550E66EFE0EDB5064
:100C10008B0DF3CFE9FFF4CFEAFF000EE926050EB6
:100C2000EA22610EE926000EEA22E9CF12F0EACFAD
:100C300013F0DF50060D1250F324106E1350F42001
:100C4000116EFD0EDB500F011024E96E000E112015
:100C5000EA6EE552E750EF6EDF50060DF3CF14F069
:100C6000F4CF15F0610E1426050E1522FD0EDB5093
:100C70000F011424E96E000E1520EA6EEF50E66EA7
:100C8000FE0EDB508B0DF3CFE9FFF4CFEAFF000E31
:100C9000E926050EEA220D0EE926000EEA22E9CF2A
:100CA00012F0EACF13F0DF50060D1250F324106E4D
:100CB0001350F420116EFD0EDB500F011024E96E6D
:100CC000000E1120EA6EE552E750EF6EDF50060D80
:100CD000F3CF14F0F4CF15F0610E1426050E152293
:100CE000FD0EDB500F011424E96E000E1520EA6E94
:100CF000EF50E66EFE0EDB508B0DF3CFE9FFF4CF25
:100D0000EAFF000EE926050EEA220D0EE926000E86
:100D1000EA22E9CF12F0EACF13F02A0E1226000ED3
:100D20001322DF50060D1250F324106E1350F420DE
:100D3000116EFD0EDB500F011024E96E000E112024
:100D4000EA6EE552E750EF6EDF2A47D7020EE15C0C
:100D500002E2E16AE552E16EE552E7CFD9FF120007
:100D6000D9CFE6FFE1CFD9FFE652FE0EDB508B0D67
:100D7000F3CFE9FFF4CFEAFF000EE926050EEA22E1
:100D8000EE52EF6AFE0EDB508B0DF3CFE9FFF4CF8E
:100D9000EAFF000EE926050EEA22030EE926000E00
:100DA000EA22EE6AED6AFE0EDB508B0DF3CFE9FF0F
:100DB000F4CFEAFF000EE926050EEA22050EE92629
:100DC000000EEA22EF6AFE0EDB508B0DF3CFE9FF37
:100DD000F4CFEAFF000EE926050EEA22060EE92608
:100DE000000EEA22EF6AFE0EDB508B0DF3CFE9FF17
:100DF000F4CFEAFF000EE926050EEA22090EE926E5
:100E0000000EEA22EF6AFE0EDB508B0DF3CFE9FFF6
:100E1000F4CFEAFF000EE926050EEA220A0EE926C3
:100E2000000EEA22EF6AFE0EDB508B0DF3CFE9FFD6
:100E3000F4CFEAFF000EE926050EEA22070EE926A6
:100E4000000EEA22EF6AFE0EDB508B0DF3CFE9FFB6
:100E5000F4CFEAFF000EE926050EEA220B0EE92682
:100E6000000EEA22EF6AFE0EDB508B0DF3CFE9FF96
:100E7000F4CFEAFF000EE926050EEA220C0EE92661
:100E8000000EEA22EF6AFE0EDB508B0DF3CFE9FF76
:100E9000F4CFEAFF000EE926050EEA22080EE92645
:100EA000000EEA22EF6AFE0EDB508B0DF3CFE9FF56
:100EB000F4CFEAFF000EE926050EEA22020EE9262B
:100EC000000EEA22EF6A2A0EDF6EDFCFE6FFE66A47
:100ED000E66AFE0EDB508B0DF3CFE9FFF4CFEAFF9D
:100EE000000EE926050EEA22610EE926000EEA222E
:100EF000E9CF10F0EACF11F010C0E6FF11C0E6FF15
:100F00007BEC19F0126E050EE15E1250DFCFE6FFAA
:100F1000E66AE66AFE0EDB508B0DF3CFE9FFF4CFF5
:100F2000EAFF000EE926050EEA220D0EE926000E64
:100F3000EA22E9CF10F0EACF11F010C0E6FF11C0AD
:100F4000E6FF7BEC19F0126E050EE15E1250DFCF6A
:100F5000E6FFE66AE66AFE0EDB508B0DF3CFE9FF93
:100F6000F4CFEAFF000EE926050EEA220D0EE9266F
:100F7000000EEA22E9CF10F0EACF11F02A0E102677
:100F8000000E112210C0E6FF11C0E6FF7BEC19F045
:100F9000126E050EE15E1250E552E552E7CFD9FF21
:100FA0001200D9CFE6FFE1CFD9FF050EE126DF6AB7
:100FB000010EDF5C01E3B0D3DF508B0DF3CFE9FF0F
:100FC000F4CFEAFF000EE926050EEA22060EE92616
:100FD000000EEA22EF5021E0DF508B0DF3CFE9FF46
:100FE000F4CFEAFF000EE926050EEA22070EE926F5
:100FF000000EEA22EF06DF508B0DF3CFE9FFF4CFAE
:10100000EAFF000EE926050EEA22070EE926000E89
:10101000EA22EF50000801E27DD3DF508B0DF3CFC1
:10102000E9FFF4CFEAFF000EE926050EEA22060EDC
:10103000E926000EEA22EF50E66EDF508B0DF3CF6B
:10104000E9FFF4CFEAFF000EE926050EEA22070EBB
:10105000E926000EEA22E552E750EF6E9D90DF5040
:101060008B0DF3CFE9FFF4CFEAFF000EE926050E62
:10107000EA22090EE926000EEA22EF5025E1DF50B0
:101080008B0DF3CFE9FFF4CFEAFF000EE926050E42
:10109000EA220C0EE926000EEA22EF5002E1010ED0
:1010A00001D0000EE66EDF508B0DF3CFE9FFF4CFD9
:1010B000EAFF000EE926050EEA220B0EE926000ED5
:1010C000EA22E552E750EF6EDF508B0DF3CFE9FFD8
:1010D000F4CFEAFF000EE926050EEA22090EE92602
:1010E000000EEA22EF0402E19D8014D39D80DF50C0
:1010F0008B0DF3CFE9FFF4CFEAFF000EE926050ED2
:10110000EA22060EE926000EEA22EF5001E1F0D2B3
:10111000010EDB6A070EF36E010EDBCFF4FFF35016
:10112000F45C01E375D2010EF36E020EF3CFDBFF28
:10113000DF508B0DF3CFE9FFF4CFEAFF000EE92675
:10114000050EEA22020EE926000EEA22EF50F36EA7
:10115000020EDBCFF4FFF350F45C01E313D1DF5058
:101160008B0DF3CFE9FFF4CFEAFF000EE926050E61
:10117000EA22610EE926000EEA22E9CF12F0EACF58
:1011800013F0010EDB50060D1250F324106E1350B5
:10119000F420116E020EDB040F011024E96E000E24
:1011A0001120EA6EEF9EEF46070EE66EDF508B0DC4
:1011B000F3CFE9FFF4CFEAFF000EE926050EEA229D
:1011C000610EE926000EEA22E9CF12F0EACF13F011
:1011D000010EDB50060D1250F324106E1350F42054
:1011E000116E020EDB500F011024E96E000E11206B
:1011F000EA6EEF50E66E45EC00F0E552E55201086C
:101200002FE1030EE66EDF508B0DF3CFE9FFF4CF35
:10121000EAFF000EE926050EEA22610EE926000E1D
:10122000EA22E9CF14F0EACF15F0010EDB50060DEB
:101230001450F324126E1550F420136E020EDB04CA
:1012400000011224106E000E1320116E10C0E6FF74
:1012500011C0E6FF65EC00F0E552E552E5522ED0F4
:10126000030EE66EDF508B0DF3CFE9FFF4CFEAFFFC
:10127000000EE926050EEA22610EE926000EEA229A
:10128000E9CF14F0EACF15F0010EDB50060D145033
:10129000F324126E1550F420136E020EDB040001CD
:1012A0001224106E000E1320116E10C0E6FF11C044
:1012B000E6FF80EC00F0E552E552E552DF508B0D81
:1012C000F3CFE9FFF4CFEAFF000EE926050EEA228C
:1012D000610EE926000EEA22E9CF18F0EACF19F0F4
:1012E000010EDB50060D1850F324166E1950F42031
:1012F000176E020EDB040F011624E96E000E172094
:10130000EA6EEF50E66EDF508B0DF3CFE9FFF4CFBE
:10131000EAFF000EE926050EEA220D0EE926000E70
:10132000EA22E9CF14F0EACF15F0DF508B0DF3CFAE
:10133000E9FFF4CFEAFF000EE926050EEA220B0EC4
:10134000E926000EEA22EF502A0D1450F324126E03
:101350001550F420136E010EDB50060D1250F324CD
:10136000106E1350F420116E020EDB040F011024D6
:10137000E96E000E1120EA6EE552E750EF6E020EA4
:10138000DB2AD6D6DF508B0DF3CFE9FFF4CFEAFF8F
:10139000000EE926050EEA22610EE926000EEA2279
:1013A000E9CF12F0EACF13F0010EDB50060D125018
:1013B000F324106E1350F420116E020EDB040F01A3
:1013C0001024E96E000E1120EA6EEF9EEF46DF500A
:1013D0008B0DF3CFE9FFF4CFEAFF000EE926050EEF
:1013E000EA22080EE926000EEA22EF50106E116A7A
:1013F000DF508B0DF3CFE9FFF4CFEAFF000EE926B3
:10140000050EEA22030EE926000EEA221050EE2411
:10141000E76E1150EE20EA6EE7CFE9FFEF50E00FE4
:10142000E76E030EE7CFDBFF030EDB50080DF3CFB3
:1014300010F0F4CF11F0E40E1026260E1122010E4A
:10144000DB500F011024F66E000E1120F76E08001D
:10145000040EF5CFDBFF070E106EDF508B0DF3CFC0
:10146000E9FFF4CFEAFF000EE926050EEA220A0E94
:10147000E926000EEA22EF50105CE66E040EDBCF88
:10148000E6FF45EC00F0E552E55201082FE1030EBE
:10149000E66EDF508B0DF3CFE9FFF4CFEAFF000ECD
:1014A000E926050EEA22610EE926000EEA22E9CFBE
:1014B00014F0EACF15F0010EDB50060D1450F324A2
:1014C000126E1550F420136E020EDB04000112247C
:1014D000106E000E1320116E10C0E6FF11C0E6FF63
:1014E00065EC00F0E552E552E5522ED0030EE66EB3
:1014F000DF508B0DF3CFE9FFF4CFEAFF000EE926B2
:10150000050EEA22610EE926000EEA22E9CF14F068
:10151000EACF15F0010EDB50060D1450F324126EC5
:101520001550F420136E020EDB0400011224106E1D
:10153000000E1320116E10C0E6FF11C0E6FF80EC14
:1015400000F0E552E552E552DF508B0DF3CFE9FF95
:10155000F4CFEAFF000EE926050EEA22610EE92625
:10156000000EEA22E9CF18F0EACF19F0010EDB50A5
:10157000060D1850F324166E1950F420176E020E43
:10158000DB040F011624E96E000E1720EA6EEF50FF
:10159000E66EDF508B0DF3CFE9FFF4CFEAFF000ECC
:1015A000E926050EEA220D0EE926000EEA22E9CF11
:1015B00014F0EACF15F0DF508B0DF3CFE9FFF4CF35
:1015C000EAFF000EE926050EEA220B0EE926000EC0
:1015D000EA22EF502A0D1450F324126E1550F42015
:1015E000136E010EDB50060D1250F324106E1350D3
:1015F000F420116E020EDB040F011024E96E000EC0
:101600001120EA6EE552E750EF6E010EDB2A82D51B
:10161000DF508B0DF3CFE9FFF4CFEAFF000EE92690
:10162000050EEA220A0EE926000EEA22EF2ADF5012
:101630008B0DF3CFE9FFF4CFEAFF000EE926050E8C
:10164000EA220A0EE926000EEA22EFCF10F0060E7B
:10165000105C4EE3DF508B0DF3CFE9FFF4CFEAFFD0
:10166000000EE926050EEA22080EE926000EEA22FF
:10167000EF2ADF508B0DF3CFE9FFF4CFEAFF000E26
:10168000E926050EEA22080EE926000EEA22EFCF2F
:1016900010F0DF508B0DF3CFE9FFF4CFEAFF000E1F
:1016A000E926050EEA22050EE926000EEA22EF5091
:1016B000105C0FE3DF508B0DF3CFE9FFF4CFEAFFAF
:1016C000000EE926050EEA22080EE926000EEA229F
:1016D000EF6ADF508B0DF3CFE9FFF4CFEAFF000E86
:1016E000E926050EEA220A0EE926000EEA22EF6A32
:1016F0009D90DF508B0DF3CFE9FFF4CFEAFF000E92
:10170000E926050EEA22090EE926000EEA22010E5C
:10171000EF6E9D80DF2A4CD4050EE15C02E2E16AA7
:10172000E552E16EE552E7CFD9FF1200D9CFE6FFCF
:10173000E1CFD9FF040EE12689940A0EE66EFAEC99
:101740001AF0E552020EDB6A010EF36E020EDBCFD9
:10175000F4FFF350F45C01E390D0030EDB6A020E59
:10176000DB508B0DF3CFE9FFF4CFEAFF000EE92643
:10177000050EEA22020EE926000EEA22EF50F36E71
:10178000030EDBCFF4FFF350F45C74E2020EDB5087
:101790008B0DF3CFE9FFF4CFEAFF000EE926050E2B
:1017A000EA220D0EE926000EEA22E9CF14F0EACF74
:1017B00015F0020EDB508B0DF3CFE9FFF4CFEAFFFB
:1017C000000EE926050EEA220C0EE926000EEA229A
:1017D000EF502A0D1450F324126E1550F420136E9E
:1017E0000101FD51060D1250F324106E1350F42028
:1017F000116E030EDB500F011024E96E000E112054
:10180000EA6EEFCFDFFF030EDBCFE6FF020EDB5009
:101810008B0DF3CFE9FFF4CFEAFF000EE926050EAA
:10182000EA22EE52EF50E552E724E76E010EE7CFD1
:10183000DBFF400EF36E010EDBCFF4FFF350F45CE0
:101840000AE3800E106E010EDBCFE7FF1050E72693
:10185000010EE7CFDBFF010EDB50816EDF1C836ED4
:1018600084900A0EE66EFAEC1AF0E5528480030EBC
:10187000DB2A75D7020EDB2A67D70101FD51060A64
:1018800025E0030A1FE0010A19E0070A13E0010A34
:101890000DE0030A07E0010A01E01CD08290829269
:1018A000829419D082808292829415D08290828212
:1018B000829411D08280828282940DD08290829212
:1018C000828409D082808292828405D08290828232
:1018D000828401D000D089840A0EE66EFAEC1AF0F8
:1018E000E5520101FD2B070E0101FD5D57E30101EA
:1018F000FD6B020EDB6A010EF36E020EDBCFF4FF0E
:10190000F350F45C4BE2020EDB508B0DF3CFE9FF9A
:10191000F4CFEAFF000EE926050EEA22090EE926B9
:10192000000EEA22EF0437E1020EDB508B0DF3CFFD
:10193000E9FFF4CFEAFF000EE926050EEA220C0EBD
:10194000E926000EEA22EF5002E1010E01D0000E5E
:10195000E66E020EDB508B0DF3CFE9FFF4CFEAFF0A
:10196000000EE926050EEA220C0EE926000EEA22F8
:10197000E552E750EF6E020EDB508B0DF3CFE9FF1F
:10198000F4CFEAFF000EE926050EEA22090EE92649
:10199000000EEA22EF6A020EDB2AADD7040EE15CEC
:1019A00002E2E16AE552E16EE552E7CFD9FF1200AB
:1019B000D9CFE6FFE1CFD9FF400EF36EFE0EDBCFAD
:1019C000F4FFF350F45C0AE3800E106EFE0EDBCFE2
:1019D000E7FF1050E726FE0EE7CFDBFF8480FE0E08
:1019E000DB50816EFD0EDB50836E8490640EE66EDC
:1019F000FAEC1AF0E5528480E552E7CFD9FF1200E5
:101A0000D9CFE6FFE1CFD9FFFE0EDBCF01F1FD0E0E
:101A1000DBCF02F1FC0EDBCF03F1FB0EDBCF04F1D9
:101A2000F90EDBCF81F1FA0EDBCF82F104D8E5525B
:101A3000E7CFD9FF1200FAEC15F001017D6B01012F
:101A40007E6B0101010E006F01017F6B0101050E2C
:101A5000806F87C183F188C184F189C185F18AC112
:101A600086F100C18BF1120001017D6B01017E6BDB
:101A70000101010E006F01017F6B0101050E806FF6
:101A800087C183F188C184F189C185F18AC186F15A
:101A900000C18BF11200D9CFE6FFE1CFD9FF060ECE
:101AA000E126DF6A830EE96E010EEA6EEE50010157
:101AB00087190CE1EE500101881908E1EE5001018F
:101AC000891904E1EE5001018A1900E118E00101D1
:101AD000005101018B5D0BE1020E0101005D07E188
:101AE000010180070101805102E1A5DFD3D087C148
:101AF00083F188C184F189C185F18AC186F1010130
:101B00000051030A01E1BFD0010A18E0030A01E015
:101B1000BDD086EC16F0000901E1BCD0A3EC16F0B4
:101B2000DF6E01010151DF5C08E101017D6B010104
:101B3000020E006F0101050E806FAAD086EC16F030
:101B4000000901E1A7D0A3EC16F0DF6E01010251FC
:101B5000DF5C01E07CD0020EDB6A030EDB68D9504B
:101B6000030FE66E000EDA20E66E9ED8E552E552CF
:101B7000E76E020EE7CFDBFF020EDB50020A58E0F1
:101B8000030A05E0010A01E05DD06EDF83D00101A8
:101B9000815182114BE0D950040FE66E000EDA201D
:101BA000E66E7F0EE66E010EE66E070EE66E010E25
:101BB000E66E05D082C1FAFF01018151F96EFADFAC
:101BC000106E060EE15E105001017E6F0101010EE4
:101BD000416F01017E2B7FC142F101017E2BDE525C
:101BE000020EDD6E01017E51F36E010EDBCFF4FFBC
:101BF000F350F45C1AE2040EDBCFE9FF050EDBCFF5
:101C0000EAFFEF50E66E010EDB50EA6A410FE96E23
:101C1000010EEA22E552E750EF6E040EDB2A050EB4
:101C200001E3DB2A010EDB2ADDD701D01DDF0BD05B
:101C30000101010E416F01017E2B7FC142F10101C3
:101C40007E2B01D000D00101030E006F1BD00101DB
:101C50007D517D2BEA6A050FE96E010EEA22DFCF86
:101C6000EFFF3C0E01017D5D0DE30101010E416FAF
:101C700001017E2B0101900E426F01017E2B0101BB
:101C8000030E006F05D060D8EFDE02D0EDDE00D08D
:101C900000C18BF1060EE15C02E2E16AE552E16E01
:101CA000E552E7CFD9FF1200D9CFE6FFE1CFD9FF48
:101CB000020EE12601017D05EA6A050FE96E010EBB
:101CC000EA22EFCFDFFF010EDB6A0101050506E026
:101CD000FA0E0101055D02E0000E2AD001017D052A
:101CE000E66E050EE66E010EE66E9BD8E552E552F5
:101CF000E552E76E010EE7CFDBFF010EDB50DF5C44
:101D00000DE101017D0701017D51EA6A050FE96ED0
:101D1000010EEA22EF6A010E0BD00AD0FD0EDBCFD6
:101D2000E9FFFE0EDBCFEAFF910EEF6E000E00D052
:101D3000106E020EE15C02E2E16AE552E16E1050C3
:101D4000E552E7CFD9FF1200D9CFE6FFE1CFD9FFA7
:101D5000020EE126DF6A010EDB6A7EC1E6FF410E5C
:101D6000E66E010EE66E5DD8E552E552E552DF6E95
:101D700003C1E6FF15EC16F0E552010EDB6A010126
:101D80007E51F36E010EDBCFF4FFF350F45C0FE2F3
:101D9000010EDB50EA6A410FE96E010EEA22EF50B4
:101DA000E66E15EC16F0E552010EDB2AE8D7DFCF20
:101DB000E6FF15EC16F0E55204C1E6FF15EC16F04F
:101DC000E5520400020EE15C02E2E16AE552E16ED6
:101DD000E552E7CFD9FF1200D9CFE6FFE1CFD9FF17
:101DE000FD0EDBCFF6FFFE0EDBCFF7FF0800F55050
:101DF00012E0FD0EDBCFF6FFFE0EDBCFF7FF080093
:101E0000F550E66E15EC16F0E552FD0EDB2AFE0EDF
:101E100001E3DB2AE5D734EC16F0E552E7CFD9FF32
:101E20001200D9CFE6FFE1CFD9FF030EE126DF6A2A
:101E3000010EDB6AFC0EDB50F36E010EDBCFF4FF0C
:101E4000F350F45C12E2010EDB50E76EFD0EDBCFC7
:101E5000E9FFFE0EDBCFEAFFE750E926000EEA229B
:101E6000EF50DF1A010EDB2AE5D7DF5000D0106EED
:101E7000030EE15C02E2E16AE552E16E1050E552C8
:101E8000E7CFD9FF1200D9CFE6FFE1CFD9FF1C0E73
:101E9000E126DF6AD950010FE96EDACFEAFFEE6A78
:101EA000EE6AEE6AEE6AEE6AEE6AEE6AEE6AEE6A72
:101EB000EE6AEE6AEE6AEE6AEE6AEE6AEE6AEE6A62
:101EC000EE6AEE6AEE6AEE6AEE6AEE6AEE6A190E83
:101ED000DB6AD9CF10F0DACF11F0190EDBCFF3FFA8
:101EE000DB2AF3500F011024E96E000E1120EA6E78
:101EF000AA0EEF6ED9CF10F0DACF11F0190EDBCFAA
:101F0000F3FFDB2AF3500F011024E96E000E1120BD
:101F1000EA6EFE0EDBCFEFFFD9CF10F0DACF11F073
:101F2000190EDBCFF3FFDB2AF3500F011024E96E0B
:101F3000000E1120EA6EFB0EDBCFEFFF1A0EDB6AFC
:101F4000FB0EDB50F36E1A0EDBCFF4FFF350F45CA4
:101F500026E21A0EDB50E76EFC0EDBCFE9FFFD0E2A
:101F6000DBCFEAFFE750E926000EEA22EF50E66EEB
:101F7000D9CF10F0DACF11F01A0EDBCFE6FF190E31
:101F8000DB50E552E7240F011024E96E000E11200A
:101F9000EA6EE552E750EF6E1A0EDB2AD1D7190E22
:101FA000DBCFE7FF1A0EDB50E726190EE7CFDBFF8A
:101FB000190EDB04E66ED950010FE66E000EDA2032
:101FC000E66E2FDFE552E552E552E76E1B0EE7CFD6
:101FD000DBFF1B0EDB50AA0804E01B0EDB50BB0826
:101FE00014E1020EDB2A190EDB04E66ED950010F54
:101FF000E66E000EDA20E66E14DFE552E552E55299
:10200000E76E1B0EE7CFDBFFE4D7D9CF10F0DACFB6
:1020100011F0190EDBCFF3FFDB2AF3500F01102470
:10202000E96E000E1120EA6E1B0EDBCFEFFFD9CF59
:1020300010F0DACF11F0190EDBCFF3FFDB2AF350EB
:102040000F011024E96E000E1120EA6EBB0EEF6E38
:102050001A0EDB6A190EDB50F36E1A0EDBCFF4FF9B
:10206000F350F45C14E2D9CF10F0DACF11F01A0E6D
:10207000DB500F011024E96E000E1120EA6EEF50C4
:10208000E66E15EC16F0E5521A0EDB2AE3D734ECB7
:1020900016F01C0EE15C02E2E16AE552E16EE552E7
:0620A000E7CFD9FF12009A
:0A20A600D9CFE6FFE1CFD9FFE652E3
:1020B0007A0EE66E240EE66EDD0EE66ECC0EE66E51
:1020C000BB0EE66EAA0EE66E00EC0DF0106E060E6C
:1020D000E15E1050A7DA04010A6B0401060E0B6FD3
:1020E0000401050E0E6F04018C0E0C6F010E0D6FB6
:1020F00004010F6B0A0EE66E040EE66EE66ACFEC84
:1021000001F0E552E552E552DF6A030EDF5C11E2B1
:10211000DF50EA6ABF0FE96E010EEA22EF50E66E69
:10212000060EDF24E66ED8EC0CF0E552E552DF2A0D
:10213000ECD7DF6A040EDF5C11E2DF50EA6ABF0F02
:10214000E96E010EEA22EF1CE66E090EDF24E66E50
:10215000D8EC0CF0E552E552DF2AECD7DF6A050E29
:10216000DF5C11E2DF50EA6ABF0FE96E010EEA227E
:10217000EF1CE66E110EDF24E66ED8EC0CF0E55293
:10218000E552DF2AECD7E552E552E7CFD9FF12003E
:10219000D9CFE6FFE1CFD9FF020EE126010EDB6ABF
:1021A0000101BE516AE1DF6A030EDF5C11E2DF501C
:1021B000EA6ABF0FE96E010EEA22EF1CE66E060E18
:1021C000DF24E66ED8EC0CF0E552E552DF2AECD7BE
:1021D000DF6A040EDF5C11E2DF50EA6ABF0FE96ECE
:1021E000010EEA22EF1CE66E090EDF24E66ED8EC43
:1021F0000CF0E552E552DF2AECD7DF6A040EDF5C13
:1022000011E2DF50EA6ABF0FE96E010EEA22EF1C0D
:10221000E66E0D0EDF24E66ED8EC0CF0E552E552CA
:10222000DF2AECD7DF6A050EDF5C11E2DF50EA6AD5
:10223000BF0FE96E010EEA22EF1CE66E110EDF24DD
:10224000E66ED8EC0CF0E552E552DF2AECD7DF6AF7
:10225000050EDF5C11E2DF50EA6ABF0FE96E010E86
:10226000EA22EF1CE66E160EDF24E66ED8EC0CF0C8
:10227000E552E552DF2AECD7F6D0DF6A030EDF5CC9
:1022800034E2070EDF24EA6A8C0FE96E010EEA22BF
:10229000EF50200803E0010EDB040EE10101C91D2F
:1022A000E66E060EDF24E66ED8EC0CF0E552E55241
:1022B000DE52010EDD6E17D0070EDF24EA6A8C0FA6
:1022C000E96E010EEA22EF50D00FEA6ABF0FE96E05
:1022D000010EEA22EF1CE66E060EDF24E66ED8EC55
:1022E0000CF0E552E552DF2AC9D7010EDB6ADF6A3E
:1022F000040EDF5C34E20B0EDF24EA6A8C0FE96E19
:10230000010EEA22EF50200803E0010EDB040EE18B
:102310000101C91DE66E090EDF24E66ED8EC0CF053
:10232000E552E552DE52010EDD6E17D00B0EDF24B2
:10233000EA6A8C0FE96E010EEA22EF50D00FEA6ACA
:10234000BF0FE96E010EEA22EF1CE66E090EDF24D4
:10235000E66ED8EC0CF0E552E552DF2AC9D7010E43
:10236000DB6ADF6A040EDF5C34E2100EDF24EA6A07
:102370008C0FE96E010EEA22EF50200803E0010EF7
:10238000DB040EE10101C91DE66E0D0EDF24E66ED1
:10239000D8EC0CF0E552E552DE52010EDD6E17D09E
:1023A000100EDF24EA6A8C0FE96E010EEA22EF506C
:1023B000D00FEA6ABF0FE96E010EEA22EF1CE66E4B
:1023C0000D0EDF24E66ED8EC0CF0E552E552DF2A64
:1023D000C9D7010EDB6ADF6A050EDF5C34E2150E39
:1023E000DF24EA6A8C0FE96E010EEA22EF50200822
:1023F00003E0010EDB040EE10101C91DE66E110EC2
:10240000DF24E66ED8EC0CF0E552E552DE52010E08
:10241000DD6E17D0150EDF24EA6A8C0FE96E010E0F
:10242000EA22EF50D00FEA6ABF0FE96E010EEA22EE
:10243000EF1CE66E110EDF24E66ED8EC0CF0E552D0
:10244000E552DF2AC9D7DF6A050EDF5C0CE2010125
:10245000C91DE66E160EDF24E66ED8EC0CF0E552D0
:10246000E552DF2AF1D7020EE15C02E2E16AE552B1
:10247000E16EE552E7CFD9FF1200D9CFE6FFE1CFF9
:10248000D9FF0B0EE126FD0EDBCFE9FFFE0EDBCF01
:10249000EAFF010EEFCFDBFF010EE76EFD0EDBCF93
:1024A000E9FFFE0EDBCFEAFFE750E926000EEA2245
:1024B000020EEFCFDBFF030EDB6A010EDB50830A57
:1024C00023E0010A13E0030A04E0010A01E090D0CE
:1024D0009AD004010F6B0A0EE66E040EE66EE66AF1
:1024E000CFEC01F0E552E552E5528DD00401010E2A
:1024F0000F6F0A0EE66E040EE66EE66ACFEC01F090
:10250000E552E552E5527FD0050EDB6AD950060F41
:10251000E96EDACFEAFFEE6AEE6AEE6AEE6AEE6A1A
:1025200081D8010EE76EFD0EDBCF10F0FE0EDBCF83
:1025300011F0E7501026000E112210C0E6FF11C066
:10254000E6FF8C0EE66E010EE66E95EC19F0E55294
:10255000E552E552E552040EDB6A060EF36E040EF8
:10256000DBCFF4FFF350F45C1CE2040EDB50EA6AAC
:102570008C0FE96E010EEA22EF50E66ED950050F7E
:10258000106EDACF11F0040EDB500F011024E96E4B
:10259000000E1120EA6EE552E750EF6E040EDB2AC2
:1025A000DCD704010A6B0401060E0B6FD950050F2E
:1025B000E66E000EDA20E66EB6EC19F0E552E55252
:1025C000F3CF0EF40401D950050F0C6FDACF0DF4E0
:1025D00004010F6B0A0EE66E040EE66EE66ACFEC9F
:1025E00001F0E552E552E5520101010EBE6F0BD03C
:1025F000030EDB6AFB0EDBCFE9FFFC0EDBCFEAFF4D
:10260000920EEF6E00D0030EDB5000D0106E0B0E5A
:10261000E15C02E2E16AE552E16E1050E552E7CF7B
:10262000D9FF1200D9CFE6FFE1CFD9FFE652DF6A2A
:102630001C0EDF5C0AE2DF50EA6A000FE96E040E4E
:10264000EA22200EEF6EDF2AF3D704010A6B0401A1
:10265000060E0B6F0401060E0E6F0401000E0C6FC8
:10266000040E0D6F04010F6B0A0EE66E040EE66E8B
:10267000E66ACFEC01F0E552E552E552E552E5524B
:10268000E7CFD9FF1200D9CFE6FFE1CFD9FFE6525D
:10269000DF6AFA0EDB50DF5C20E2DF50E76EFD0EF2
:1026A000DBCFF6FFFE0EDBCFF7FFE750F626000E7E
:1026B000F7220800F550E66EDF50E76EFB0EDBCF29
:1026C000E9FFFC0EDBCFEAFFE750E926000EEA2225
:1026D000E552E750EF6EDF2ADCD7E552E552E7CF4F
:0426E000D9FF12000C
:0C26E4000000000000000000202020206A
:1026F0000000200050505000000000005050F850E2
:10270000F85050002078A07028F02000C0C8102099
:10271000409818006090A040A89068006020400099
:102720000000000010204040402010004020101009
:10273000102040000020A870A8200000002020F8F1
:102740002020000000000000301020000000007C6D
:102750000000000000000000006060000008102081
:1027600040800000708898A8C88870002060A02071
:102770002020F800708808102040F800F810201081
:102780000888700010305090F8101000F880F008A1
:102790000808F000304080F088887000F8081020A9
:1027A0004040400070888870888870007088887801
:1027B0000810600000606000606000000060600061
:1027C0006020400008102040201008000000F800A1
:1027D000F800000040201008102040007088081009
:1027E0002000200070880868A8A87000205088F891
:1027F00088888800F08888F08888F0007088808059
:1028000080887000E09088888890E000F88080F0F0
:102810008080F800F88080F080808000708880B828
:1028200088887800888888F888888800F8202020A0
:102830002020F80038101010109060008890A0C080
:10284000A0908800808080808080F80088D8A8A828
:10285000888888008888C8A89888880070888888B0
:1028600088887000F08888F0808080007088888870
:10287000A8906800F08888F0A09088007880807028
:102880000808F000F8202020202020008888888870
:10289000888870008888888888502000888888A860
:1028A000A8A85000888850205088880088888850C0
:1028B00020202000F80810204080F80070404040A0
:1028C000404070008850F820F82020007010101050
:1028D0001010700020508800000000000000000070
:1028E0000000F80040201000000000000000700808
:1028F000788878008080B0C88888F00000007080F8
:1029000080887000080868988888780000007088BF
:10291000F8807000304840E04040400000788888EF
:10292000780870008080B0C8888888002000602007
:102930002020700008000808084830004040485037
:102940006050480060202020202070000000D0A8A7
:10295000A88888000000B0C88888880000007088B7
:10296000888870000000F088F0808000000068987F
:10297000780808000000B0C88080800000007080E7
:102980007008F0004040E040404830000000888877
:102990008898680000008888885020000000888897
:1029A000A8A85000000088502050880000008888A7
:1029B000780870000000F8102040F8001020204037
:1029C000202010002020202020202000201010088F
:1029D00010102000002010F810200000002040F807
:1029E00040200000304848300000000030484830A7
:1029F000000000000818387838180800040404049F
:102A000004040400FFFFFFFFFFFFFF0000040400B9
:102A100004040000008080008080000080808080AE
:102A200080808000C0C0C0C0C0C0C000E0E0E0E066
:102A3000E0E0E000F0F0F0F0F0F0F000F8F8F8F886
:102A4000F8F8F800FCFCFCFCFCFCFC00FDFDFDFDC6
:102A5000FDFDFD002070F8707070700030488484B7
:102A6000844830008448303030488400007048701A
:102A700040400000003040701060000000404040C6
:102A80004078000000008005C004E003F002F80177
:102A9000000000000804180338027801F800000064
:102AA000DACFE4FFE2CFDAFFE9CFE4FFEACFE4FFD9
:102AB000F6CFE4FFF7CFE4FFF5CFE4FFF3CFE4FF79
:102AC000F4CFE4FFFACFE4FF00EE00F0100EE804CC
:102AD00003E3EECFE4FFFBD700EE10F00A0EE804AC
:102AE00003E3EECFE4FFFBD7E652D9CFE6FFE1CF19
:102AF000D9FFE6524CEC1AF0DF6E02013F513F2B3A
:102B0000EA6A420FE96E020EEA22DFCFEFFF3C0EC7
:102B100002013F5D02E302013F6B0201412BE552DE
:102B2000E552E7CFD9FFE55200EE19F00A0EE804AE
:102B300003E3E5CFEDFFFBD700EE0FF0100EE80446
:102B400003E3E5CFEDFFFBD7E5CFFAFFE5CFF4FFD9
:102B5000E5CFF3FFE5CFF5FFE5CFF7FFE5CFF6FFD4
:102B6000E5CFEAFFE5CFE9FFE5CFDAFF1100DACFE5
:102B7000E4FFE2CFDAFFE9CFE4FFEACFE4FFE65279
:102B8000D9CFE6FFE1CFD9FFE6520201025105E1BC
:102B9000ACA2FED7829AAC9A21D002010151EA6A16
:102BA000030FE96E020EEA22EFCFDFFFDF50AD6EBA
:102BB0000201012B3C0E0201015D02E30201016BE7
:102BC000000E0201E76E0219E8AE02D0023503D012
:102BD000E750D880025502E202010207E552E552B1
:102BE000E7CFD9FFE552E5CFEAFFE5CFE9FFE5CF33
:102BF000DAFF1100D9CFE6FFE1CFD9FFE6527C0E14
:102C0000DF6E810EE66EE66ADFCFE6FFC4EC19F0F8
:102C1000E552E552E552D08EAC8AAC9EF28C9F8A8A
:102C2000E552E552E7CFD9FF1200D9CFE6FFE1CF59
:102C3000D9FFACA2FED702010051002BEA6A030FB4
:102C4000E96E020EEA22FE0EDBCFEFFF0201022B3D
:102C50003C0E0201005D02E30201006B010E00D098
:102C6000E552E7CFD9FF1200D9CFE6FFE1CFD9FF78
:102C7000020EE126828A0A0EE66EFAEC1AF0E5529E
:102C8000000E0201E76E0219E8AE02D0023503D051
:102C9000E750D880025528E202010151EA6A030F89
:102CA000E96E020EEA22010EEFCFDBFFACA2FED7E7
:102CB000010EDB50AD6EACA2FED70201012B3C0E23
:102CC0000201015D02E30201016B000E0201E76EE9
:102CD0000219E8AE02D0023503D0E750D880025581
:102CE00002E202010207CCD7829A0A0EE66EFAECE3
:102CF0001AF0E552106E020EE15C02E2E16AE55262
:102D0000E16E1050E552E7CFD9FF1200D9CFE6FFB0
:102D1000E1CFD9FFE652DF6A9D9A000E0201E76E0D
:102D20004119E8AE02D0413503D0E750D880415573
:102D300002E2010EDF6E9D8ADF5000D0E552E552BF
:102D4000E7CFD9FF1200D9CFE6FFE1CFD9FFE65296
:102D50009D9A02014051402BEA6A420FE96E020E31
:102D6000EA22EFCFDFFF3C0E0201405D02E30201E9
:102D7000406B000E0201E76E4119E8AE02D041350A
:102D800003D0E750D880415502E2020141079D8AF5
:0E2D9000DF5000D0E552E552E7CFD9FF120028
:022D9E00DACF8A
:102DA000E4FFE2CFDAFFE9CFE4FFEACFE4FFF6CFBA
:102DB000E4FFF7CFE4FFF5CFE4FFF3CFE4FFF4CF78
:102DC000E4FFFACFE4FF00EE00F0100EE80403E3A6
:102DD000EECFE4FFFBD700EE10F00A0EE80403E3A9
:102DE000EECFE4FFFBD7E652F294E8C1E6FFE9C17B
:102DF000E6FF87EC1AF0E552E5520101EA51EB11CA
:102E000007E005D0EBC1FAFF0101EA51F96EFADFE4
:102E10000101F22B000EF3230101F42B000EF52328
:102E20000101F62B000EF723E55200EE19F00A0E11
:102E3000E80403E3E5CFEDFFFBD700EE0FF0100E43
:102E4000E80403E3E5CFEDFFFBD7E5CFFAFFE5CFDD
:102E5000F4FFE5CFF3FFE5CFF5FFE5CFF7FFE5CFD3
:102E6000F6FFE5CFEAFFE5CFE9FFE5CFDAFF110096
:102E7000DACFE4FFE2CFDAFFE9CFE4FFEACFE4FF05
:102E8000F6CFE4FFF7CFE4FFF5CFE4FFF3CFE4FFA5
:102E9000F4CFE4FFFACFE4FF00EE00F0100EE804F8
:102EA00003E3EECFE4FFFBD700EE10F00A0EE804D8
:102EB00003E3EECFE4FFFBD7E6529E90ECC1E6FFC2
:102EC000EDC1E6FF6BEC1AF0E552E5520101EE515F
:102ED000EF1107E005D0EFC1FAFF0101EE51F96EE5
:102EE000FADFE55200EE19F00A0EE80403E3E5CF3D
:102EF000EDFFFBD700EE0FF0100EE80403E3E5CF83
:102F0000EDFFFBD7E5CFFAFFE5CFF4FFE5CFF3FF09
:102F1000E5CFF5FFE5CFF7FFE5CFF6FFE5CFEAFF19
:102F2000E5CFE9FFE5CFDAFF1100D9CFE6FFE1CF2A
:102F3000D9FF9F0EE66EA3EC1AF0E552FD0EDBCF33
:102F4000E6FFFE0EDBCFE6FF87EC1AF0E552E55216
:102F5000FD0EDBCFE8F1FE0EDBCFE9F1FB0EDBCFA0
:102F6000EAF1FC0EDBCFEBF1E552E7CFD9FF12001F
:102F7000D9CFE6FFE1CFD9FFC50EE66E2BEC1AF0F4
:102F8000E552FD0EDBCFE6FFFE0EDBCFE6FF6BEC7E
:102F90001AF0E552E5529F80FD0EDBCFECF1FE0EFC
:102FA000DBCFEDF1FB0EDBCFEEF1FC0EDBCFEFF173
:082FB000E552E7CFD9FF120042
:082FB800D9CFE6FFE1CFD9FFFC
:102FC000E652FD0EDBCF12F0FE0EDBCF13F013C086
:102FD00012F0136A640E1302F3CF13F0640E1202A0
:102FE000F3CF12F0F4501326FD0EDBCF14F0FE0EDB
:102FF000DBCF15F0040ED89015321432E804FBE153
:103000000A0E1502F3CF15F00A0E1402F3CF14F0D6
:10301000F450152612501410106E13501510116E26
:103020000F0EE76EFD0EDBCF16F0FE0EDBCF17F0B6
:10303000E7501616176A10501610DF6EDF5000D0DA
:10304000E552E552E7CFD9FF1200D9CFE6FFE1CF35
:10305000D9FF020EE1260A0E106E10C00CF0FE0E13
:10306000DBCF07F0ECEC1AF00750DF6E0A0E106EA3
:1030700010C00CF0FE0EDBCF07F0ECEC1AF0010EE6
:1030800003C0DBFF010EDB500F0B106E0F0EDF14C1
:10309000100DF350101000D0106E020EE15C02E231
:1030A000E16AE552E16E1050E552E7CFD9FF120018
:1030B000D9CFE6FFE1CFD9FFE652DF6AFE0EDB5043
:1030C0000F0B106EFE0EDB50F00BE8380F0B0A0DE5
:1030D000F3501024DF6EDF5000D0E552E552E7CF09
:1030E000D9FF1200D9CFE6FFE1CFD9FF0A0E106E4B
:1030F00010C00CF0FE0EDBCF07F0ECEC1AF007501E
:10310000060DFE0EDBCFE7FFF350E726FE0EE7CFFE
:10311000DBFFFE0EDB50106E116A10C0F3FF11C012
:10312000F4FF00D0E552E7CFD9FF1200D9CFE6FF78
:10313000E1CFD9FF0A0E106E10C00CF0FE0EDBCFEF
:1031400007F0ECEC1AF00350300FE66E010EE76E5C
:10315000FC0EDBCFE9FFFD0EDBCFEAFFE750E926EF
:10316000000EEA22E552E750EF6E0A0E106E10C014
:103170000CF0FE0EDBCF07F0ECEC1AF00750300F2E
:10318000E66EFC0EDBCFE9FFFD0EDBCFEAFFE5527A
:0C319000E750EF6EE552E7CFD9FF1200C8
:04319C00D9CFE6FFA2
:1031A000E1CFD9FF020EE12609EC1AF0CFEC1AF0BC
:1031B0009CEC00F053EC10F0000EE66EE66AEF0EA9
:1031C000E66ED80EE66E95EC17F0E552E552E55244
:1031D000E5522C0EE66E170EE66EDF0EE66EB10EB1
:1031E000E66EB8EC17F0E552E552E552E552FAEC1E
:1031F00015F011EC00F0F40E0101F21902E1010EDC
:10320000F31905E1D2EC1AF00101F26BF36B010145
:10321000640EF41901E1F55105E1D1EC07F001016B
:10322000F46BF56BF40E0101F61902E1010EF719CA
:1032300005E1C8EC10F00101F66BF76B4BEC0DF0FB
:103240000400D9D7020EE15C02E2E16AE552E16EC8
:08325000E552E7CFD9FF12009F
:08325800280EF66E000EF76E61
:10326000000EF86E00010900F550906F0900F5504E
:10327000916F03E1906701D03DD00900F5508B6F4D
:103280000900F5508C6F0900F5508D6F0900090099
:10329000F550E96E0900F550EA6E090009000900D1
:1032A000F5508E6F0900F5508F6F09000900F6CFB9
:1032B00092F0F7CF93F0F8CF94F08BC0F6FF8CC06C
:1032C000F7FF8DC0F8FF00018E5302E18F5307E036
:1032D0000900F550EE6E8E07F8E28F07F9D792C01D
:1032E000F6FF93C0F7FF94C0F8FF00019007000EAF
:0632F000915BBFD7120044
:0A32F600FE0EE3CFE9FFFF0EE3CF69
:10330000EAFFE9CFF3FFEACFF4FFFB0EE35003E15E
:10331000FC0EE35009E0FB0EE30602E2FC0EE306BE
:10332000FD0EE350EE6EF1D71200D9CFE6FFDACFF3
:10333000E6FFFA0EE3CFD9FFFB0EE3CFDAFFFC0E78
:10334000E3CFE9FFFD0EE3CFEAFFE9CFF3FFEACFDA
:10335000F4FFDECFEFFFEE66FCD7FF0EE3CFDAFF20
:10336000E552FF0EE3CFD9FFE5521200FE0EE3CF88
:10337000E9FFFF0EE3CFEAFFF36AF46AEE5203E0DF
:08338000F34AF42AFBD7120006
:08338800D9CFE6FFDACFE6FF22
:10339000E1CFD9FFE2CFDAFFAC6AAB6AFD0EDBB05A
:1033A000AC88DBA202D0AC8CAB8CDBB4AC8EDBA6E1
:1033B00002D0AB8801D0AB8ADBB8AC849E98DBBA74
:1033C000AB86DBAC02D09D8A01D09D9A9E9ADBAE83
:1033D00002D09D8801D09D98FB0EDB50AF6EFB0E96
:1033E000FC0EDBCF11F011C010F0116A1050B06E5E
:1033F000AC8AAB8E949C948EAC50100B04E0AC5015
:10340000800B01E1948CE552E5CFDAFFE7CFD9FFDD
:023410001200A8
:0E3412000F0EC16E96948D84949A829A949CAB
:10342000948E9498949696908480956A936A816A13
:10343000949082909492829294948294939681969E
:1034400093988198939A819A939C819C939E819E54
:0634500092948994120021
:0A345600D9CFE6FFDACFE6FFE1CFA1
:10346000D9FFE2CFDAFFFD0EDB507E0BCD6EFD0EF5
:10347000DBAC02D0CD8E01D0CD9ECF6ACE6A9E90BD
:10348000DBAE02D09D8001D09D90CD80E552E5CF8E
:08349000DAFFE7CFD9FF1200BB
:08349800D9CFE6FFDACFE6FF11
:1034A000E1CFD9FFE2CFDAFFE652F20E0101FA17BF
:1034B000ABAC03D0FA91ABB0FA81ABB4FA85ABB246
:1034C000FA87AE50DF6EDF50E552E552E5CFDAFF06
:0634D000E7CFD9FF120056
:0A34D600D9CFE6FFDACFE6FFE1CF21
:1034E000D9FFE2CFDAFFE652E652FC0EDBCFDEFF79
:1034F000DBCFDDFF010EDB50CF6EDF50CE6EE5522D
:0E350000E552E552E5CFDAFFE7CFD9FF120022
:02350E00D9CF13
:10351000E6FFDACFE6FFE1CFD9FFE2CFDAFFE652EE
:10352000E652FC0EDBCFDEFFDBCFDDFF010EDB5012
:10353000D76EDF50D66EE552E552E552E5CFDAFFA1
:06354000E7CFD9FF1200E5
:0A354600D9CFE6FFDACFE6FFE1CFB0
:10355000D9FFE2CFDAFFFD0EDB507F0BD56ED76AC5
:10356000D66AF294FD0EDBAE02D0F28A01D0F29A56
:0E357000D58EE552E5CFDAFFE7CFD9FF120086
:02357E00800EBD
:10358000F36E00EE00F00F0E01D81200EA6002D0D8
:0E359000EE6AFCD7F350E9601200EE6AFCD739
:02359E00010129
:1035A000FC6B12000101FC0504E10101FC6B8D9430
:0C35B00004D00101010EFC6F8D8412009C
:0435BC001DEE00F010
:1035C0002DEE00F0F86A0F9C2CEC19F003EC00F0E3
:0835D000CEEC18F0FBD712004D
:0835D800036A080EE76ED890AB
:1035E000073603360C50035C02E3036E072AE72E0E
:0435F000F7D71200F7
:0C35F400FF0EE350E84E1200000000D073
:0A36000000D000D0E82EFAD7120027
:06360A00000000000000BA
:1036100000000000000000000000000000000000AA
:10362000000000000000000000000000000000009A
:10363000000000000000000000000000000000008A
:10364000000000000000000000000000000000007A
:10365000000000000000000000000000000000006A
:10366000000000000000000000000000000000005A
:10367000000000000000000000000000000000004A
:08368000000000000000000042
:0836880000000000000000003A
:10369000000000000000000000000000000000002A
:1036A000000000000000000000000000000000001A
:1036B000000000000000000000000000000000000A
:1036C00000000000000000000000000000000000FA
:1036D00000000000000000000000000000000000EA
:1036E00000000000000000000000000000000000DA
:1036F00000000000000000000000000000000000CA
:1037000000000000000000000000000000000000B9
:0437100000000000B5
:0C371400000000000000000000000000A9
:0437200000000000A5
:0B3724003F065B4F666D7D077F6F0066
:01372F000099
:02373000FFFF99
:0E3732004C494E452000000000000000000041
:103740000000000000000000000000000000000079
:103750000000000000000000000000000000000069
:1037600000000000003F065B4F666D7D077F6F0025
:1037700031203232304E2033343020313233342055
:0E37800035363720313233343500000000007A
:01378E00003A
:020000040030CA
:0100010006F8
:010002001BE2
:0100030012EA
:010005008179
:010006008178
:010008000FE8
:01000900C036
:01000A000FE6
:01000B00E014
:01000C000FE4
:01000D0040B2
:00000001FF
